:06000000020006020BB332
:0300630002006632
:050066001200B980FE4C
:0E006B0075985275890175C80075CAE675CB87
:0E007900FF75C830D2CA75900075C00175C5FC
:02008700FF2256
:08008900AF82AE83EF60010EAF
:0300910090E89064
:0D009400A3E583458270F9DFF4DEF222223D
:0800A100AF82AE83EF60010E97
:0300A90090FFFACB
:0D00AC00A3E583458270F9DFF4DEF2222225
:0300B90012006BC7
:0E00BC00120B84400B6390FF9003E812008942
:0200CA0080F0C4
:0800CC00D2AF12015312094AE0
:0B00D4001209EA120A4DE58260F612E4
:0E00DF000178E58260EF120170AA82C0021261
:0A00ED00017485823AD0028A821263
:0400F70009CA80D9D9
:04005D00C200C2011A
:0D00FB00E582FA30E0074390027B028005A9
:050108005390FD7B0097
:0C010D00EA30E10843900443030480063C
:060119005390FB5303FBB1
:0C011F00EA30E208439008430301800628
:06012B005390F75303FEA0
:0D0131007582EDC003120BABD0038B820270
:02013E000BAB09
:070140007508017509017546
:060147000A01750B0175B1
:06014D000C01750D0122FA
:020153007A0030
:03015500BA0600E7
:0A015800500FEA240EF8EA2408F91B
:07016200770076000A80EC33
:070169007516007514002259
:04017000758208226A
:04017400851482224A
:09017800120C13400475820022F0
:050181008514157A0051
:03018600BA0600B6
:0A0189005017EA240EF8EA2408F9E2
:0C0193008703A603C3EA9516400277001C
:03019F000A80E4EF
:0801A200120C1340030202BE1F
:0C01AA00120BFAAA82BAE004D20180C253
:0701B600BAF004D20080BB87
:0701BD0030010474702AFAFE
:0701C400C201300066EA9061
:0901CB000D5493FBC200BBE000DF
:0C01D400400EEB2420900E4493F4FC52EB
:0401E0001402028F74
:0601E400BB000302028FC4
:0701EA00E516700302028F0D
:0401F1007C007D0011
:0301F500BD060044
:0501F800400302028F2C
:0A01FD00ED2408F88606EEB5032392
:0A020700C3EC95165012EC2408F821
:0C021100EC04FE2408F98707A6078E0401
:02021D0080E877
:05021F001516E5162490
:0602240008F87600806579
:05022A000D8D0480C6EB
:03022F00BAF00022
:0C023200505BEA900D5493FB6053E516FE
:05023E00B4060280403F
:03024300BBE0001D
:06024600502AC2027C00F8
:0A024C00C3EC95165011EC2408F8DD
:0A0256008605EDB50304D202800313
:030260000C80E926
:06026300200229AC160583
:0902690016EC2408F8A603801D20
:03027200BAE800E7
:0C0275005018EB2420900E4493FA421421
:02028100800CEF
:0A028300120140900E4C75F080123D
:02028D000CA0C3
:07028F00E515B5140280041F
:04029600758201224A
:02029A007A00E8
:03029C00BA06009F
:0A029F005019EA2408F88603EA2447
:0A02A9000EF88604EBB50402800491
:0402B300758201222D
:0302B7000A80E2D8
:0402BA007582002227
:0402BE007582002223
:0E0D54000042003E3C3A3B450043413F3D2BF0
:0E0D6200350000E2E100E0141E0000001D1646
:0E0D7000041A1F0000061B0708212000002C9B
:0E0D7E001909171522000011050B0A1C23008D
:0E0D8C000000100D1824250000360E0C122752
:0E0D9A0026000037380F33132D000000340000
:0E0DA8002F2E000039E52830003100000064D5
:0E0DB600000000002A000059005C5F000000F1
:0E0DC40062635A5D5E60295344575B56556169
:0E0DD200470000E60040E400000000000000C2
:0E0DE000000000E300000000000000E700003B
:0E0DEE00000000000065000000000000000092
:0E0DFC000000000000000000000000000000E9
:0E0E0A00000000005400000000000000000086
:0E0E1800000000000000580000000000000074
:0E0E2600000000000000004D00504A000000D7
:0E0E3400494C51004F52000000004E00464B4A
:020E42000000AE
:080E44000102040810204080A7
:0E0E4C0050736575646F205265706F72740A82
:010E5A000097
:0602C20090000A1200A1E9
:0E02C800907F40E0FA20E1F8907F42E0FABA21
:0E02D600021F7A637B7F8A828B83E070147A2A
:0E02E400407B7F907F40E0FC4304028A828BC7
:0502F20083ECF080D157
:0102F70022E4
:0802F800E53820E1030203CA0E
:07030000E524B40102802195
:07030700E524B40202802886
:07030E00E524B40302802F77
:08031500E524B421030203AB4F
:08031D00E524B422030203B839
:030325000203C50B
:05032800E525245CF551
:05032D0035E4340FF57A
:04033200360203CAC2
:05033600E525246EF531
:05033B0035E4340FF56C
:04034000360203CAB4
:09034400E52324FB405AE52325C2
:04034D0023252390B1
:03035100035473DF
:0703540002036302037002C3
:06035B00037D02038A028B
:02036100039700
:05036300E525245BF517
:0503680035E4340EF540
:03036D0036805A7D
:05037000E525245FF506
:0503750035E4340EF533
:03037A0036804D7D
:05037D00E525247BF5DD
:0503820035E4340EF526
:030387003680407D
:05038A00E52524CDF57E
:05038F0035E4340EF519
:030394003680337D
:05039700E52524FBF543
:05039C0035E4340EF50C
:0303A1003680267D
:0703A400E4F535F536801F7A
:0503AB00E525246EF5BC
:0503B00035E4340FF5F7
:0303B5003680127D
:0503B800E525241DF500
:0503BD0035E4340FF5EA
:0303C2003680057D
:0503C500E4F535F536FA
:0603CA00E522606D7A00DF
:0303D000BA080068
:0A03D3005027EA242DF8EA2535F53D
:0B03DD0082E43536F583E493FBF6154F
:0603E8002205258A05E54F
:0703EE002270085338FC43A4
:0403F5003810800339
:0303F9000A80D4A3
:0B03FC000DE53730E0147A407B7F9065
:0E0407007F40E0FC4304048A828B83ECF0808B
:0104150012D4
:0E0416007A407B7F907F40E0FC5304FB8A829B
:040424008B83ECF0EA
:090428006337018D82120A7CE5A4
:080431003830E4061202C25348
:0204390038EF9A
:01043B00229E
:05043C00433803853088
:0304410024852FE0
:0504440023752500E511
:0604490024B40102801C36
:07044F00E524B40202801B4A
:07045600E524B40302801A43
:07045D00E524B421028064D4
:07046400E524B42270806959
:06046B007522120204EEEE
:060471007522220204EED8
:09047700E52324FB4046E52325A2
:04048000232523907D
:0304840004877377
:0704870002049602049F022B
:06048E0004A80204B10203
:0204940004BAA8
:09049600900E5BE493F522804F07
:09049F00900E5FE493F522804603
:0904A800900E7BE493F522803DE7
:0904B100900ECDE493F522803495
:0904BA00900EFBE493F522802B67
:0504C3007522008026F7
:0904C800752512900F80E493F5F4
:0304D10022801A6C
:0504D40075223F8015B8
:0C04D9007522007A407B7F907F40E0FCA1
:0904E5004304088A828B83ECF0C9
:0904EE00E534700AAA33C3EA9553
:0504F7002250028A22E0
:0304FC000202F801
:0E04FF007A407B7F907F40E0FC4304048A82B9
:0A050D008B83ECF0758200120A7C6B
:0E051700907F40E0FA20E1F8907F42E0FABACF
:04052500010280143B
:0E0529007A407B7F907F40E0FC4304028A8290
:060537008B83ECF080DA7A
:07053D00907F54E52FF0222E
:0B0544007403552DFA600BBA0103028E
:02054F0005B8ED
:05055100BA0252800512
:050556005338DF805D59
:0C055B0074035531FA6005BA012D8014BC
:0E0567007A407B7F907F40E0FC5304F78A824D
:060575008B83ECF0803DD9
:0E057B007A447B7F907F44E0FC5304F78A8231
:090589008B83ECF05337FD802652
:0E0592007A407B7F907F40E0FC4304088A8221
:0605A0008B83ECF08012D9
:0E05A6007A407B7F907F40E0FC4304088A820D
:0405B4008B83ECF059
:0E05B8007A407B7F907F40E0FC4304048A82FF
:0A05C6008B83ECF0758200020A7CC2
:0B05D0007403552DFA600BBA01030202
:0205DB000641D7
:0505DD00BA024F800589
:0505E200433820805A9F
:0C05E70074035531FA6005BA012A801433
:0E05F3007A407B7F907F40E0FC4304088A82C0
:060601008B83ECF0803A4F
:0E0607007A447B7F907F44E0FC4304088A82A3
:060615008B83ECF080264F
:0E061B007A407B7F907F40E0FC4304088A8297
:060629008B83ECF080124F
:0E062F007A407B7F907F40E0FC4304088A8283
:04063D008B83ECF0CF
:0E0641007A407B7F907F40E0FC4304048A8275
:0A064F008B83ECF0758200020A7C38
:06065900AA2D752D0075AD
:0A065F002E00530203BA0002800AC5
:05066900BA0102805BF4
:05066E00BA0246800AFB
:0A067300E53830E551752D02804C8A
:0C067D0074035531FA6005BA011C800DB1
:0C068900907F40E0FA30E338752D0180CE
:010695003331
:0C069600907F44E0FA30E32B752D0180CA
:0106A2002631
:0E06A3007A407B7F907F40E0FC4304088A820F
:0606B1008B83ECF08012C7
:0E06B7007A407B7F907F40E0FC4304088A82FB
:0406C5008B83ECF047
:0E06C9007A407B7F907F40E0FC4304048A82ED
:0D06D7008B83ECF0758202120A7C0202C2D5
:0A06E400E52FF52160147A447B7FB6
:0E06EE00907F44E0FC4304018A828B83ECF091
:0206FC00800577
:0506FE00907F44E4F0D0
:0E0703007A407B7F907F40E0FC4304048A82B2
:0A0711008B83ECF0758200020A7C75
:0A071B0085212D7A407B7F907F40FE
:0E072500E0FC4304048A828B83ECF0758201B1
:06073300120A7C0202C262
:0E0739007A407B7F907F40E0FC4304048A827C
:0A0747008B83ECF0758200020A7C3F
:0C075100752D007A407B7F907F40E0FC1B
:0D075D004304048A828B83ECF07582011244
:05076A000A7C0202C23E
:08076F00752D00752E007A00C3
:03077700BA0600BF
:0A077A00501174022A242DF8EA241D
:0907840026F98703A6030A80EAA6
:0C078D00E53730E0147A407B7F907F401D
:0D079900E0FC4304048A828B83ECF08012A4
:0E07A6007A407B7F907F40E0FC5304FB8A8208
:0407B4008B83ECF057
:0A07B800633701758208120A7C0203
:0207C20002C271
:0407C4004338042290
:0C07C800E53830E009907F747401F00205
:0207D40002F829
:0107D6002200
:0707D700E53830E367852CD3
:0607DE002D752E007A00CB
:0307E400BA060052
:0A07E700501174022A242DF8EA24B0
:0907F10026F98703A6030A80EA39
:0C07FA00E53730E1147A447B7F907F44A7
:0D080600E0FC4304048A828B83ECF0801236
:0E0813007A447B7F907F44E0FC5304FB8A8292
:040821008B83ECF0E9
:0C082500633702758208120AA97A447B2E
:0E0831007F907F44E0FC4304028A828B83ECBC
:04083F00F05338F743
:010843002292
:0E084400120A517A427B7F8A828B83E0600326
:0308520002092078
:0D085500907F40E0FA30E3127A407B7F9004
:0D0862007F40E0FC5304F78A828B83ECF0AA
:0C086F00907F747401F0433701746055F1
:0A087B002DFA6009BA20030208E814
:0308850002090D58
:0B088800E52EFA24F44046EA2A2A90EC
:0308930008967351
:070896000208C30208BA02C8
:06089D0008D50208CC02A0
:0608A30008D50208C602A0
:0608A90008C00208D502A0
:0608AF0008BD0208C902A9
:0508B50008D20208CF8B
:0308BA00020544F0
:0308BD0002071B14
:0308C00002043CF3
:0308C300020659D1
:0308C6000204FF2A
:0308C9000206E440
:0308CC000205D052
:0308CF00020739E4
:0308D200020751C9
:0E08D5007A407B7F907F40E0FC4304088A82DB
:0508E3008B83ECF02204
:0708E800AA2EBA01028005EF
:0508EF00BA09088003B6
:0308F40002076F89
:0308F7000207C431
:0E08FA007A407B7F907F40E0FC4304088A82B6
:050908008B83ECF022DE
:0E090D007A407B7F907F40E0FC4304088A82A2
:05091B008B83ECF022CB
:090920005338FCE53830E2218572
:0C0929002D821200FB7A407B7F907F4003
:0E093500E0FC4304048A828B83ECF0758200A0
:06094300120A7C5338FB90
:01094900228B
:0B094A005338FC907F54E4F0D2B790CB
:0E0955007F507431F0907FE0E4F0907F527498
:0E096300FFF0907F407403F0907F747401F0F9
:0D097100907F647401F0907F947401F09009
:0E097E007F847401F0900064120089C2B77586
:06098C0022007523007536
:060992002400752500752C
:0709980038207537007A00DA
:03099F00BA060095
:0B09A2005009EA2426F876000A80F2D3
:0D09AD00907F52E0FA30E2147A527B7F9086
:0E09BA007F52E0FC4304048A828B83ECF080C1
:0109C800E44A
:0109C900220B
:0809CA00AA828A3E753F007508
:0709D2004040754106E4F509
:0809D9004290002675F0401267
:0409E1000C2F853A18
:0509E5002C433808223C
:0E09EA007A517B7F8A828B83E070147A547B73
:0E09F8007F8A828B83E06009907F44E4F09058
:030A06007F54F02A
:0E0A0900907F52E0FA30E028907F5274FFF0A8
:0D0A1700907F42E0FABA01051207C8800383
:030A240012084471
:0E0A27007A407B7F907F40E0FC4304028A828D
:040A35008B83ECF0D3
:0E0A3900907F44E0FA30E00B907F44E0FA201A
:050A4700E1030207D7E6
:010A4C002287
:040A4D00852182225B
:0E0A51007A637B7F8A828B83E0601F907F63D5
:080A5F00E0FA24F750027A08C6
:020A67007B0012
:0C0A6900C3EB9A500DEB242DF8907F6039
:060A7500E0FCF60B80EE30
:010A7B002258
:070A7C00AA8253023F7B0038
:0C0A8300C3EB9A500E907F70EB242DF80E
:070A8F008604ECF00B80ED82
:0E0A96007A407B7F907F40E0FC4304028A821E
:050AA4008B83ECF02241
:070AA900AA8253023F7B000B
:0C0AB000C3EB9A500E907F90EB242DF8C1
:070ABC008604ECF00B80ED55
:0E0AC3007A447B7F907F44E0FC4304028A82E9
:050AD1008B83ECF02214
:040E5B000403090083
:0E0E5F001C034600480053002D0048006100AF
:0E0E6D00670065006E0062006500720067009D
:0E0E7B00520345006C0065006B0074006F00B0
:0E0E890072002000460050004700410020008B
:0E0E97004B006500790062006F006100720080
:0E0EA50064000A0041006E00640072006500E7
:0E0EB30061007300200056006F0067006700AA
:0C0EC10065006E006500640065007200B2
:0E0ECD002E035300740061006E00640061008B
:0E0EDB0072006400200043006F006E0066008D
:0E0EE900690067007500720061007400690006
:040EF7006F006E001A
:0E0EFB0022034B006500790070006100640066
:0E0F09002D0049006E00740065007200660045
:060F1700610063006500AB
:0E0F1D0005010906A101050719E029E71500E5
:0E0F2B00250175019508810275089501810167
:0E0F390005081901290375019503910275053C
:0E0F4700950191010507190029651500256522
:070F5500750895068100C03C
:0E0F5C001201000100000008E9030365010115
:040F6A00010200017F
:0E0F6E0009022200010103A064090400000131
:0E0F7C0003000104092100010001223F0007CB
:060F8A00058103080008C8
:020AD6007A00A4
:030AD800BA03005E
:050ADB004003020B8244
:0E0AE000D2DF7582FFC002120BABD0027B6426
:0E0AEE001BEB601330DB10900001C002C00350
:090AFC00120089D003D00280E948
:060B0500EB7003020B7E01
:020B0B007B006D
:030B0D00BB6400C6
:0D0B1000501420D811900001C002C0031243
:090B1D000089D003D0020B80E72F
:050B2600BB64028053D6
:0E0B2B00C002120BA2AB82D002BBFA477B00C5
:030B3900BB64009A
:0D0B3C00501420D81190000AC002C003120E
:090B49000089D003D0020B80E703
:050B5200BB64028027D6
:0E0B5700C002120BA2AB82D002BBAA117582A3
:0B0B6500F0120BAB758202120BAB12FA
:040B70000BA2D322DF
:0A0B7400900064C002120089D00254
:040B7E000A020AD885
:020B8200C3228C
:040B8400753B4975FF
:030B88003C497570
:0C0B8B003D00C288C28975A801C2D8C212
:0B0B9700DC120AD6E433F58224FF22B2
:050BA20010D80280FBE9
:040BA70085D9822248
:020BAB00AA821C
:060BAD0020DBFD8AD922C5
:0E0BB300C0E0C0F0C082C083C0D075D0181062
:040BC100D802800DC9
:0B0BC50020D90885D982120BDF8002C6
:020BD000C2D988
:0D0BD200C2DCD0D0D083D082D0F0D0E03291
:0A0BDF00AA8274F0253D4012A83BE5
:080BE900A61A053B053DC3E51A
:060BF1003B94594003751E
:020BF7003B4978
:010BF90022D9
:090BFA00E53D60FCA83C86020503
:050C03003CC3E53C9438
:050C0800594003753C9A
:010C0D00499D
:050C0E00153D8A822261
:080C1300E53D7004740180014D
:010C1B00E4F4
:040C1C00FAB4010025
:090C2000E433FA60047A01800259
:020C29007A004F
:040C2B00EA24FF2296
:06003500E478FFF6D8FD9F
:0A0C2F00AA82AB83ACF08A438B4429
:050C39008C45A83EA956
:040C3E003FAD4088FE
:040C42004689478D0B
:040C460048A841A9D0
:010C4A004267
:090C4B008805890618B8FF01199B
:0A0C5400ED4E60258546828547833A
:0A0C5E008548F0120CEFFDA385821B
:0A0C6800468583478A828B838CF057
:0B0C7200ED120C87A3AA82AB8380CE9A
:070C7D008543828544838555
:030C840045F02216
:080013007900E94400601B7A4A
:05001B0000900F907839
:030020000075A0C8
:0A00230000E493F2A308B800020500
:08002D00A0D9F4DAF275A0FF7E
:0E0C870020F71030F6118883A88220F507F6BA
:050C9500A88375830037
:010C9A002237
:030C9B00F280F7ED
:020C9E00F02242
:08003B007800E8600A79007505
:07004300A000E4F309D8FC62
:08004A007800E84400600C7925
:0B00520000900000E4F0A3D8FCD9FAF5
:0A0CA000AA82AB83ACF07D007E0059
:0E0CAA008A828B838CF0120CEFFF60258F8204
:050CB8000ABA00010B67
:0E0CBD00C002C003C004C005C006120D0FD057
:0E0CCB0006D005D004D003D0020DBD00D20E1D
:020CD90080CFCA
:0E0CDB0075820AC005C006120D0FD006D005A6
:060CE9008D828E83A32220
:03000600758158A9
:0A000900120D0BE582600302006691
:0E0CEF0020F71430F6148883A88220F507E65B
:060CFD00A88375830022AC
:030D0300E280F794
:030D0600E4932251
:020D0900E022E6
:040D0B0075820022CB
:02006100D203C8
:0E0D0F00AA82209F0D209E0A7582FFC002124C
:040D1D000D37D002BC
:060D2100BA0A0B300308C2
:050D270010990280FBA1
:030D2C0075990DA9
:050D2F0010990280FB99
:030D34008A992277
:0E0D3700AA82C28E740F5589F5F0742045F023
:0E0D4500F5894387808A8B8A8DD28E759852ED
:010D5300227D
:00000001FF
