:03E0000002EBC967
:10EBC90078FFE4F6D8FD75817912EC42BF01032084
:10EBD9000119D2FF9080007FE07E00C2FEE0D2FEE4
:10EBE900F0A3DEF7438380DFF2C2FF900000E493D5
:0EEBF900B40205D2B102000075905580FE22D4
:10EEFD00E5462408F582E43545F583E582254AF596
:10EF0D0082E43583F58322E5462406F582E4354512
:10EF1D00F58322AF42AE41AD40AC3FAB0BAA0AA97F
:10EF2D0009A808C302E14312E154AB6DAA6CA96BA9
:10EF3D00A86AC302E143F582E43557F5832212E155
:10EF4D00548F0B8E0A8D098C08E422E544254AF571
:07EF5D0082E43543F5832235
:08E1DE008F428E418D408C3F01
:10E1E60075450575462A74FFFFFEFDFCAB42AA4144
:10E1F600A940A83FC312E1437011F54A12EF5874C3
:10E20600FFF0054AE54AB406F3616112EF20700299
:10E216006141854682854583E4F0A304F085468204
:10E22600854583A3A37408F0A3E4F0E5462404120D
:10E23600EF187406F0E546240512EF187404F01280
:10E24600EF14E4F0A304F0E4F54AE54A90F2DD9316
:10E25600FF12EEFDEFF0054AE54AB406EDAF6DAEEE
:10E266006CAD6BAC6AE546240E12EF1812E17CE445
:10E27600F54AE546241212EF0174FFF0054AE54A15
:10E28600B406EFAF42AE41AD40AC3FE546241812AE
:10E29600EF1812E17CE4F547F548F549E5494548AC
:10E2A60060026141E547C3940A400261417B1C7AE2
:10E2B600007D067C08E4FFFE12E64FC3EE64809400
:10E2C6008040787DD07C077F067E0812E4E08E4889
:0DE2D6008F49D3EF9400EE64809480405A8D
:10E2E3007B017A0079008B4B8A4C894DE9240EF926
:10E2F300E43AAF01F5458F468F82F583E582241812
:10E3030012EF0C12EF34702D12EF14E0FEA3E06451
:10E31300024E7021E546240E12EF1812EF4BF54A18
:10E3230012EEFDE0FF740C254AF8A607054AE54AFC
:0AE33300B406ED8009E4F548F54951
:10E33D00054741A212EF2060057EFF7FFF22E4F525
:10E34D004A740C254AF8E6FF12EF58EFF0054AE53E
:07E35D004AB406EDE4FEFFE7
:01E364002296
:10F000007E007F00EF240EF558E43EF55775570556
:10F0100075582AE558241812EF4312EF347034E57E
:10F0200058240612EF43E0FEA3E064024E7024E58C
:10F0300058240E12EF4312EF4BFFE558240812EF4D
:10F0400043E5822F12EF0CE0FE740C2FF8A6060F9A
:03F05000BF06E711
:01F05300229A
:04F2E9006382536386
:10F1CA0014F5828E837401F0052AE52AAE2922906D
:10F1DA00027C12E15490002E12E170C302E1438BCB
:10F1EA00828A8312E17C74042BFBE43A228E258FF7
:10F1FA0026E4F522F523F52422749C2DF582E434C5
:04F20A0004F5832262
:10EA06007B787A02EB24ECF52AE43AF529E4F5273B
:10EA1600F528744E2528F58274023527F583E4F02F
:10EA26000528E52870020527B44EE7E527B402E27B
:10EA36008B828A837401F0E5822404F582E43583AF
:10EA4600F58312E1A1040302018B828A83A3740178
:10EA5600F08B828A83A3A37406F0E4F527F528E5F4
:10EA66002890F2DD93FFEB241CF582E43AF583E56A
:10EA7600822528F582E5833527F583EFF00528E51D
:10EA860028700205276406452770D4E4F527F52883
:10EA9600E52890F2E993FF052AE52AAC29700205DC
:10EAA6002914F5828C83EFF00528E52870020527E6
:10EAB6006404452770DA12F1D27002052914F58232
:10EAC6008E83743512F1D17002052912F1CA7002D3
:10EAD600052912F1CA7002052914F5828E8374FF86
:05EAE600F07E007FF44A
:01EAEB002208
:10E786007E027F78EF24F2FFE43EAB07FA0BEBAE96
:10E796000270010A14F5828E837403F00BEBAE024D
:10E7A60070010A14F5828E837432F00BEBAE0270A0
:10E7B600010A14F5828E837404F090003A12E15433
:10E7C60012F1E9FA0BEBAE0270010A14F5828E83A0
:10E7D6007436F00BEBAE0270010A14F5828E837468
:10E7E60004F0AF65AE64AD63AC6212F1E98B82F5FD
:08E7F6008374FFF07E017F0037
:01E7FE0022F8
:08EE86008F278B288A29892AB5
:10EE8E007E017F1A8F828E83E0FD70070FBF000117
:10EE9E000E80F1EDF46055ED6527703A8F828E830A
:10EEAE00A3E0FDC3952B50028D2BE4FDEDC3952BF6
:10EEBE00501CEF2DF582E43EF583A3A3E0AB28AA08
:10EECE0029A92A8D8275830012E0F90D80DE8F82CA
:10EEDE008E83A3E0FF220FBF00010E8F828E83E090
:0EEEEE002FFFE43EFE0FBF00010E80987F0054
:01EEFC0022F3
:10E3650012EA0612F1F7E52445237033E522C3943A
:10E3750008502C12E489500261F612E4AD4020E504
:10E38500244523601112F1D9700C12E4D2BF0106A5
:10E39500E52164026009E4F523F5240522616BE5B6
:10E3A500244523700261F612E4C312E78612F1F7E1
:10E3B500E52445237035E522C3940A502E12E489DD
:10E3C5005002802D12E4AD50028026E524452360DD
:10E3D5001112F1D9700C12E4D2BF0106E5216405D2
:10E3E5006009E4F523F524052261B5E5244523708C
:10E3F500057EFF7FFF2290003A12E1548F6D8E6CEF
:10E405008D6B8C6A90003E12E1548F718E708D6F0A
:10E415008C6E7E007F96E4FD8F828E83E0FC601318
:10E42500EDC3947F500D12F203ECF00FBF00010E07
:10E435000D80E512F203E4F0FB7A007976752B0482
:10E445007F0112EE867B007A00795C752B047F1CB8
:10E4550012EE867B007A007972752B047F0312EE2B
:10E46500867B007A007966752B047F0612EE86128C
:10E47500E4C37B007A007960752B027F0D12EE866E
:03E48500E4FEFFB3
:10E488002275300075314375320075334485253463
:10E498008526357FFF7EFF7DFF7CFF12F0EFC3EE00
:10E4A80064809480227DE87C037F447E0012F1839F
:10E4B8008E238F24C3EE64809480227B007A0079B7
:10E4C80062752B047F3612EE8622FB7A007921755D
:08E4D8002B017F3512EE8622B4
:10EF6400E4F59075C00175C5FFC2B1A2979201A2E4
:10EF7400969200200002FF2212E90EA2979201A2AB
:10EF8400969200D2B1A201929512F139402812E36F
:10EF940065EF4E702890049CE06022D29612E8003F
:10EFA400EF4E7004C2968002D292D291E4F5F9C277
:10EFB400FFD2FE7F0122D292D2917F00227F0022D3
:06F2DD000006980000008D
:0BEFF1000212000002150000011400D5
:10F05400E4FC85588285578375F008E902E1D2857E
:10F064001382851283A3A322E5822404F582E43566
:10F0740083F58312E17C092274082513FFF513E458
:10F084003512FEF51222E55B2555F582E55A355415
:0EF09400F58322E9FF7E007C067D0002E11B71
:10F23900AB07AA068B828A83E493FE740193FDEDE2
:10F24900FFE4FCFD90D04412E17C8B828A83A3A366
:09F2590012E16090D04002E17C5A
:10E90E00C2FF90D00012E1A10000080090D000C01C
:10E91E0083C08212E154EE54F7FEECD082D0831203
:10E92E00E17C90D0237401F090D01812E1A1004048
:10E93E00060090D00F7412F090D013740CF090D09B
:10E94E00177412F090D01C12E1A1000F003F90D06E
:10E95E0027E4F07557D4F558F912F05612E1A100DC
:10E96E0000580012F097E42FFFEE3418FE12F05408
:10E97E0012F06CB901E3855882855783C083C0823B
:10E98E0012E154EE4420FEECD082D08312E17C756D
:10E99E0057D4755808E4F912F05612E1A10000C0E0
:10E9AE000012F09712F05412F06CB904EAE55824F4
:10E9BE0018F582E43557F583C083C08212E154EE18
:10E9CE004420FEECD082D08312E17C7EF27FDD12F9
:10E9DE00F23990D00774FFF090D00B747FF090D086
:10E9EE0000C083C08212E154EF4443FFEE44A0FE08
:08E9FE00ECD082D08302E17C21
:10F262007F087ED4E4FDEDC3940450148F828E8314
:10F27200A3A3E030E70A0D74082FFFE43EFE80E608
:07F28200BD0404E4FEFF22BD
:01F289002262
:10F20E007D007CD4C2FF8D828C83EEF0A3EFF08D57
:10F21E00828C83A3A37478F0A3E4F02404F582E433
:0AF22E003CF58312E1A10000180076
:01F2380022B3
:10F28A0090D400A3A3C083C082E044C8FFA3E0D007
:08F29A0082D083CFF0A3EFF056
:01F2A2002249
:0CE64F008E4E8F4F8C508D518A528B5391
:10E65B00E551B4060BE550B408067E057F1C80041B
:10E66B007E027F4E8E5A8F5B8E588F59E4F554F590
:10E67B0055E55590F2DD93FFE55B2406F582E43515
:10E68B005AF583E5822555F582E5833554F583EFFD
:10E69B00F00555E555700205546406455470D2E5F6
:10E6AB004F454E6028E4F554F555E54F2555F58259
:10E6BB00E54E3554F583E0FF12F08AEFF00555E592
:10E6CB0055700205546406455470DF8019E4F55407
:10E6DB00F55512F08A74FFF00555E5557002055497
:10E6EB006406455470ECE55B240CF582E4355AF571
:08E6FB0083E550F0A3E551F0A6
:10E70300740E2553FFF553E43552FEF552C3EF94CF
:10E713003CEE9400500875560075573C80068552B0
:0BE7230056855357AF57AE5612F20E4A
:10E72E00755AF8755B00AE52AF53AA58A9597B01C2
:10E73E00A85BAC5A7D0112E0D3E553255BF55BE592
:10E74E0052355AF55A855254855355C3E55595574A
:10E75E00E5549556501B055BE55BAE5A7002055AA3
:10E76E0014F5828E83E4F00555E55570DE05548070
:07E77E00DA12F28AE4FEFF4B
:01E785002271
:08E4E0008E4E8F4F8C508D51C0
:10E4E800E4F552F553C2FFE55145507002C14AE5C3
:10E4F8005345526002C14AC202755401E551455064
:10E508007002A1BC90D007E030E40812E90EE4F5EF
:0BE5180012F51390D007E054036016CA
:10E523007555D4755600855682855583E4F0A3F05E
:06E5330090D0077403F014
:10E5390090D007E0540C606BE030E3020514E5135A
:10E549004512700F12F2628E128F13E51345127085
:03E5590036802CDD
:10E55C00E4F555AF550555EFC39404501812F0630C
:10E56C00E030E71112F07CBED4E9BF28E67512D476
:10E57C0075130880DE12F063E030E70890D0077462
:04E58C000CF08028E7
:10E59000E5132404FFE435128F82F583A3A3E0443E
:10E5A000E0FEA3E08E15F516D2028010E554700847
:10E5B000E5511551700215500554A1042002028145
:10E5C000EF851382851283E0F552A3E0F553AE5236
:10E5D000FFAA15A9167B0178007C007D0112E0D30B
:10E5E00090000CE0FEA3E0FF654F7003EE654E6007
:10E5F0000EBE0806BF060312F000E4F552F553857F
:10E600001382851283E4F0A3F012F063E0542044F7
:08E61000C012F063F0A3E4F076
:10E6180085125585135612F07CBED409BF2806759D
:10E6280012D4751308E51365567004E51265556034
:10E638000912F063E020E70281EF90D007740CF034
:06E6480081EFAE52AF535A
:01E64E0022A9
:10EFC400E53E240AF582E4353DF58322FFFEFDFC8F
:10EFD400AB3EAA3DA93CA83BC302E143AF6DAE6C76
:0DEFE400AD6BAC6A22F582E43537F583226F
:06EAEC008F328C338D34E3
:10EAF200E4F535F536AD34AC337F007E0812E4E040
:10EB02008E358F36D3EF9400EE648094805002618C
:10EB1200C475370075380E853882853783E0FFC4A7
:10EB2200540FFEBE04CFE538240612EFE9E0543F4D
:10EB3200FCA3E04C70BFEF540F75F004A485F039CC
:10EB4200F53AE538241012EFE912E1548F3E8E3D7A
:10EB52008D3C8C3B74FF12EFD0602912EFE0EC4D3C
:10EB62004E4F6025E53E4579FFE53D4578FEE53CA3
:10EB72004577FDE53B4576FC74FFFBFAF9F8C312D5
:10EB8200E1437005753F018015E412EFD070024138
:10EB9200F712EFE012EFDA600241F7E4F53FE538F1
:10EBA200240912EFE9E06532600241F78538828577
:10EBB2003783A3A3E0FEA3E0C3953AF536EE953979
:06EBC200F535AE35AF365B
:01EBC800222A
:08ED42008F398E388D378C36B5
:10ED4A00753D02753E5C853E82853D83E0540F44E5
:10ED5A0040F0E054F04405F0E53C2414FEE4353B71
:10ED6A00A3A3F0A3CEF0E53E240812EFC87440F046
:10ED7A00E53E240912EFC8E53AF0AF39AE38E53E70
:10ED8A00241012EFC812E17C12EFE0E53E240C12C7
:10ED9A00EFC812E17CE53E240412EFC8E475F001E5
:10EDAA0012E12D12EFC4E4F0A3F07D14FCAF3EAEE5
:10EDBA003D12F0B5EFF4FFEEF4FE12EFC4EEF0A34D
:10EDCA00EFF0AF39AE38AD37AC367543057544460A
:10EDDA0012E1DEEF4E60057EFF7FFF227E057F4651
:10EDEA00E53C2414FBE4353BFA7D007C0812E64F2F
:01EDFA0022F6
:06F2E3006F637465740006
:10F2CC00C3E5239404E52264802214F5828C83E444
:01F2DC00220F
:08EDFB008E2C8F2D8A308B3124
:10EE03008F828E83ECF0A3EDF0EF2402FFE43EFE4D
:10EE1300853182853083E060210531E531AC307086
:10EE230002053014F5828C83E0FD0FEFAA06700112
:10EE33000E14F5828A83EDF080D60FEFAC067001D5
:10EE43000E12F2D6F0853382853283E493601F0578
:10EE530033E533AC327002053212F2D693FD0FEF75
:10EE6300AA0670010E14F5828A83EDF080D70FEFA6
:10EE7300AC0670010E12F2D6F0C3EF952DFFEE959E
:02EE83002CFE63
:01EE8500226A
:10E80000E4F522F523752604F527F528752945F545
:10E810002AF52B7E027F787A047B9C7532F2753361
:10E82000E37D01FC12EDFB8E248F25E4F52112E837
:10E83000F0C3EE64809480401A7D887C13AF27AECD
:10E840002612F1838E228F23C3EF9404EE6480940A
:10E850008050090521E521C3940340D212F2CC94E3
:10E86000805002804790002AE07004A3E0640360B7
:10E87000028039E52B452A7018900022E0F528A384
:10E88000E0F529900278E4F0A37404F0752400F513
:10E8900025E52B2401FFE4352AFE90002CE06E7064
:10E8A00003A3E06F600BE52B452A70347EFF7FFFEA
:10E8B00022D312F2CD948040157C007D2EE52324D6
:10E8C000FCFBE52234FFFAAF2BAE2A12EC87052BB6
:10E8D000E52B7002052A90027AE52AF0A3E52BF0D9
:0FE8E00012F2CC94824002012B12E8F0E4FEFF0A
:10E8EF0022AF71AE70AD6FAC6E8528308529318542
:0FE8FF00263285273385243485253512F0EF2204
:08F183008E2C8F2D8C2E8D2F98
:10F18B00E4FE753000753122AD2FAC2E7F1112EAE3
:10F19B00ECEF4E6029853182853083A3A3E0FCA37D
:10F1AB00E0B52DE4ECB52CE0E5312404F582E43533
:0EF1BB0030F583E0FEA3E024F8FFEE34FFFE03
:01F1C9002223
:08F0EF008F2F8E2E8D2D8C2C2D
:10F0F7007E027F708F828E83E532F0A3E533F015B1
:10F10700828E83A3A3E530F0A3E531F0E53524082B
:10F11700FBE43534FAEF2404F582E43EF583EAF0A4
:10F12700A3EBF0AF2FAE2E753A118A3BF53C12EDEB
:01F137004295
:01F1380022B4
:10F0A200EF60010E90F3CBA3E583458270F9DFF4A4
:10F0B200DEF222E4FAFB8F828E83AE02AF03C0F04F
:10F0C20075F000EC4D6023ED60010CE0A330F00B15
:10F0D2002FFF50100EEE700C0F80092EFE50050F00
:0DF0E200EF70010E05F0DDE3DCE1D0F0225F
:10F2A300E4F5F9D2FFC2FE90D55574AAF090AAAA4C
:07F2B3007455F090D55522BF
:10F2BA0012F2A374F0F07F147E0012F0A2C2FFD201
:02F2CA00FE2222
:10F139007521FF7522FF20013F12F2A37490F07F21
:10F14900147E0012F0A2908000E0F521A3E0F522E0
:10F159007817A6210812E188000000007818A62275
:10F169008521C18522C212F2BAE521B41F06E52222
:09F1790064356002D322C322C3F5
:01F18200226A
:0CEC87008E2C8F2D8C2E8D2F8A308B311F
:10EC9300E4F532E52D25E0547FFEE42400F534EE5F
:04ECA3003480F53391
:10ECA700E52DAE2C7806CEC313CE13D8F9F536541E
:03ECB7003FF535F1
:10ECBA00E4F5F9D2FFA20192FE852DC1E52CF5C239
:0DECCA00D3E5319400E5306480948040650E
:10ECD70020010612F2AA74A0F08535F9E4FF052F8A
:10ECE700E52FAC2E7002052E14F5828C83E0F536E5
:10ECF7000534E534AC337002053314F5828C83E5B3
:10ED070036F00FBF80D87F017E0012F0A2E53415E0
:10ED17003470021533853482853383E0B536F605C2
:10ED270034E5347002053374802531F53174FF35CD
:03ED370030F53084
:07ED3A00808EC2FFD2FEC370
:01ED410022AF
:10EC070002EF64E493A3F8E493A34003F68001F2D0
:10EC170008DFF48029E493A3F85407240CC8C3330E
:10EC2700C4540F4420C8834004F456800146F6DFDD
:10EC3700E4800B010204081020408090EFF1E47E8D
:10EC4700019360BCA3FF543F30E509541FFEE493D2
:10EC5700A360010ECF54C025E060A840B8E493A399
:10EC6700FAE493A3F8E493A3C8C582C8CAC583CAC4
:10EC7700F0A3C8C582C8CAC583CADFE9DEE780BE7C
:01EFFC000014
:10E00300E709F608DFFA8046E709F208DFFA803EFF
:10E0130088828C83E709F0A3DFFA8032E309F608EC
:10E02300DFFA8078E309F208DFFA807088828C8354
:10E03300E309F0A3DFFA806489828A83E0A3F60808
:10E04300DFFA805889828A83E0A3F208DFFA804CE2
:10E0530080D280FA80C680D4806980F280338010B9
:10E0630080A680EA809A80A880DA80E280CA803322
:10E0730089828A83ECFAE493A3C8C582C8CCC5839A
:10E08300CCF0A3C8C582C8CCC583CCDFE9DEE7806A
:10E093000D89828A83E493A3F608DFF9ECFAA9F0E9
:10E0A300EDFB2289828A83ECFAE0A3C8C582C8CC3F
:10E0B300C583CCF0A3C8C582C8CCC583CCDFEADE58
:10E0C300E880DB89828A83E493A3F208DFF980CCBA
:10E0D30088F0EF60010E4E60C388F0ED2402B404B3
:10E0E3000050B9F582EB2402B4040050AF2323455A
:06E0F300822390E053734C
:10E0F900F8BB010DE58229F582E5833AF583E8F05D
:10E10900225006E92582C8F622BBFE05E92582C808
:02E11900F222F0
:10E11B00EF8DF0A4A8F0CF8CF0A428CE8DF0A42E18
:02E12B00FE22D2
:10E12D00C5F0F8A3E028F0C5F0F8E582158270027D
:06E13D001583E038F0221A
:10E14300EB9FF5F0EA9E42F0E99D42F0E89C45F032
:01E1530022A9
:0CE15400E0FCA3E0FDA3E0FEA3E0FF223E
:10E16000E493FC740193FD740293FE740393FF2205
:0CE17000E0F8A3E0F9A3E0FAA3E0FB2232
:0CE17C00ECF0A3EDF0A3EEF0A3EFF02216
:10E18800D083D082E493F608740193F6087402935E
:09E19800F608740393F674047395
:10E1A100A8828583F0D083D08212E1B812E1B8123F
:10E1B100E1B812E1B8E473E493A3C583C5F0C58364
:10E1C100C8C582C8F0A3C583C5F0C583C8C582C8C8
:01E1D100222B
:0CE1D200A42582F582E5F03583F5832258
:00000001FF
