:2000000002EBC9E709F608DFFA8046E709F208DFFA803E88828C83E709F0A3DFFA8032E312
:2000200009F608DFFA8078E309F208DFFA807088828C83E309F0A3DFFA806489828A83E0EC
:20004000A3F608DFFA805889828A83E0A3F208DFFA804C80D280FA80C680D4806980F280D3
:2000600033801080A680EA809A80A880DA80E280CA803389828A83ECFAE493A3C8C582C843
:20008000CCC583CCF0A3C8C582C8CCC583CCDFE9DEE7800D89828A83E493A3F608DFF9EC28
:2000A000FAA9F0EDFB2289828A83ECFAE0A3C8C582C8CCC583CCF0A3C8C582C8CCC583CC21
:2000C000DFEADEE880DB89828A83E493A3F208DFF980CC88F0EF60010E4E60C388F0ED2416
:2000E00002B4040050B9F582EB2402B4040050AF232345822390E05373F8BB010DE5822947
:20010000F582E5833AF583E8F0225006E92582C8F622BBFE05E92582C8F222EF8DF0A4A8AC
:20012000F0CF8CF0A428CE8DF0A42EFE22C5F0F8A3E028F0C5F0F8E582158270021583E09E
:2001400038F022EB9FF5F0EA9E42F0E99D42F0E89C45F022E0FCA3E0FDA3E0FEA3E0FF2218
:20016000E493FC740193FD740293FE740393FF22E0F8A3E0F9A3E0FAA3E0FB22ECF0A3EDF8
:20018000F0A3EEF0A3EFF022D083D082E493F608740193F608740293F608740393F67404AB
:2001A00073A8828583F0D083D08212E1B812E1B812E1B812E1B8E473E493A3C583C5F0C526
:2001C00083C8C582C8F0A3C583C5F0C583C8C582C822A42582F582E5F03583F583228F423A
:2001E0008E418D408C3F75450575462A74FFFFFEFDFCAB42AA41A940A83FC312E143701169
:20020000F54A12EF5874FFF0054AE54AB406F3616112EF2070026141854682854583E4F053
:20022000A304F0854682854583A3A37408F0A3E4F0E546240412EF187406F0E54624051228
:20024000EF187404F012EF14E4F0A304F0E4F54AE54A90F2DD93FF12EEFDEFF0054AE54A12
:20026000B406EDAF6DAE6CAD6BAC6AE546240E12EF1812E17CE4F54AE546241212EF017494
:20028000FFF0054AE54AB406EFAF42AE41AD40AC3FE546241812EF1812E17CE4F547F54844
:2002A000F549E549454860026141E547C3940A400261417B1C7A007D067C08E4FFFE12E6DF
:2002C0004FC3EE6480948040787DD07C077F067E0812E4E08E488F49D3EF9400EE64809453
:2002E00080405A7B017A0079008B4B8A4C894DE9240EF9E43AAF01F5458F468F82F583E594
:2003000082241812EF0C12EF34702D12EF14E0FEA3E064024E7021E546240E12EF1812EF0E
:200320004BF54A12EEFDE0FF740C254AF8A607054AE54AB406ED8009E4F548F54905474129
:20034000A212EF2060057EFF7FFF22E4F54A740C254AF8E6FF12EF58EFF0054AE54AB406F9
:20036000EDE4FEFF2212EA0612F1F7E52445237033E522C39408502C12E489500261F61261
:20038000E4AD4020E5244523601112F1D9700C12E4D2BF0106E52164026009E4F523F524BA
:2003A0000522616BE5244523700261F612E4C312E78612F1F7E52445237035E522C3940A60
:2003C000502E12E4895002802D12E4AD50028026E5244523601112F1D9700C12E4D2BF01C4
:2003E00006E52164056009E4F523F524052261B5E524452370057EFF7FFF2290003A12E10D
:20040000548F6D8E6C8D6B8C6A90003E12E1548F718E708D6F8C6E7E007F96E4FD8F828E88
:2004200083E0FC6013EDC3947F500D12F203ECF00FBF00010E0D80E512F203E4F0FB7A0048
:200440007976752B047F0112EE867B007A00795C752B047F1C12EE867B007A007972752BF4
:20046000047F0312EE867B007A007966752B047F0612EE8612E4C37B007A007960752B02C4
:200480007F0D12EE86E4FEFF227530007531437532007533448525348526357FFF7EFF7DF0
:2004A000FF7CFF12F0EFC3EE64809480227DE87C037F447E0012F1838E238F24C3EE648062
:2004C0009480227B007A007962752B047F3612EE8622FB7A007921752B017F3512EE862209
:2004E0008E4E8F4F8C508D51E4F552F553C2FFE55145507002C14AE55345526002C14AC20E
:2005000002755401E55145507002A1BC90D007E030E40812E90EE4F512F51390D007E0547B
:200520000360167555D4755600855682855583E4F0A3F090D0077403F090D007E0540C60E3
:200540006BE030E3020514E5134512700F12F2628E128F13E51345127036802CE4F555AF2E
:20056000550555EFC39404501812F063E030E71112F07CBED4E9BF28E67512D4751308807C
:20058000DE12F063E030E70890D007740CF08028E5132404FFE435128F82F583A3A3E0445D
:2005A000E0FEA3E08E15F516D2028010E5547008E5511551700215500554A1042002028101
:2005C000EF851382851283E0F552A3E0F553AE52FFAA15A9167B0178007C007D0112E0D3D6
:2005E00090000CE0FEA3E0FF654F7003EE654E600EBE0806BF060312F000E4F552F553853B
:200600001382851283E4F0A3F012F063E0542044C012F063F0A3E4F085125585135612F05F
:200620007CBED409BF28067512D4751308E51365567004E5126555600912F063E020E7023C
:2006400081EF90D007740CF081EFAE52AF53228E4E8F4F8C508D518A528B53E551B4060B96
:20066000E550B408067E057F1C80047E027F4E8E5A8F5B8E588F59E4F554F555E55590F2C1
:20068000DD93FFE55B2406F582E4355AF583E5822555F582E5833554F583EFF00555E555EB
:2006A000700205546406455470D2E54F454E6028E4F554F555E54F2555F582E54E3554F58E
:2006C00083E0FF12F08AEFF00555E555700205546406455470DF8019E4F554F55512F08A00
:2006E00074FFF00555E555700205546406455470ECE55B240CF582E4355AF583E550F0A33F
:20070000E551F0740E2553FFF553E43552FEF552C3EF943CEE9400500875560075573C8013
:2007200006855256855357AF57AE5612F20E755AF8755B00AE52AF53AA58A9597B01A85B1F
:20074000AC5A7D0112E0D3E553255BF55BE552355AF55A855254855355C3E5559557E554B9
:200760009556501B055BE55BAE5A7002055A14F5828E83E4F00555E55570DE055480DA1293
:20078000F28AE4FEFF227E027F78EF24F2FFE43EAB07FA0BEBAE0270010A14F5828E837460
:2007A00003F00BEBAE0270010A14F5828E837432F00BEBAE0270010A14F5828E837404F0CE
:2007C00090003A12E15412F1E9FA0BEBAE0270010A14F5828E837436F00BEBAE0270010AAA
:2007E00014F5828E837404F0AF65AE64AD63AC6212F1E98B82F58374FFF07E017F002200BD
:20080000E4F522F523752604F527F528752945F52AF52B7E027F787A047B9C7532F275337E
:20082000E37D01FC12EDFB8E248F25E4F52112E8F0C3EE64809480401A7D887C13AF27AEFC
:200840002612F1838E228F23C3EF9404EE6480948050090521E521C3940340D212F2CC9405
:20086000805002804790002AE07004A3E0640360028039E52B452A7018900022E0F528A373
:20088000E0F529900278E4F0A37404F0752400F525E52B2401FFE4352AFE90002CE06E70CF
:2008A00003A3E06F600BE52B452A70347EFF7FFF22D312F2CD948040157C007D2EE5232438
:2008C000FCFBE52234FFFAAF2BAE2A12EC87052BE52B7002052A90027AE52AF0A3E52BF027
:2008E00012F2CC94824002012B12E8F0E4FEFF22AF71AE70AD6FAC6E8528308529318526DC
:200900003285273385243485253512F0EF22C2FF90D00012E1A10000080090D000C083C0D7
:200920008212E154EE54F7FEECD082D08312E17C90D0237401F090D01812E1A1004006007D
:2009400090D00F7412F090D013740CF090D0177412F090D01C12E1A1000F003F90D027E419
:20096000F07557D4F558F912F05612E1A10000580012F097E42FFFEE3418FE12F05412F022
:200980006CB901E3855882855783C083C08212E154EE4420FEECD082D08312E17C7557D4D4
:2009A000755808E4F912F05612E1A10000C00012F09712F05412F06CB904EAE5582418F567
:2009C00082E43557F583C083C08212E154EE4420FEECD082D08312E17C7EF27FDD12F23988
:2009E00090D00774FFF090D00B747FF090D000C083C08212E154EF4443FFEE44A0FEECD0B2
:200A000082D08302E17C7B787A02EB24ECF52AE43AF529E4F527F528744E2528F5827402C4
:200A20003527F583E4F00528E52870020527B44EE7E527B402E28B828A837401F0E582249F
:200A400004F582E43583F58312E1A1040302018B828A83A37401F08B828A83A3A37406F07D
:200A6000E4F527F528E52890F2DD93FFEB241CF582E43AF583E5822528F582E5833527F53F
:200A800083EFF00528E528700205276406452770D4E4F527F528E52890F2E993FF052AE5C7
:200AA0002AAC297002052914F5828C83EFF00528E528700205276404452770DA12F1D270E3
:200AC00002052914F5828E83743512F1D17002052912F1CA7002052912F1CA70020529143F
:200AE000F5828E8374FFF07E007FF4228F328C338D34E4F535F536AD34AC337F007E0812A7
:200B0000E4E08E358F36D3EF9400EE64809480500261C475370075380E853882853783E011
:200B2000FFC4540FFEBE04CFE538240612EFE9E0543FFCA3E04C70BFEF540F75F004A4857E
:200B4000F039F53AE538241012EFE912E1548F3E8E3D8D3C8C3B74FF12EFD0602912EFE0E5
:200B6000EC4D4E4F6025E53E4579FFE53D4578FEE53C4577FDE53B4576FC74FFFBFAF9F853
:200B8000C312E1437005753F018015E412EFD0700241F712EFE012EFDA600241F7E4F53FD0
:200BA000E538240912EFE9E06532600241F7853882853783A3A3E0FEA3E0C3953AF536EE20
:200BC0009539F535AE35AF362278FFE4F6D8FD75817912EC42BF0103200119D2FF90800080
:200BE0007FE07E00C2FEE0D2FEF0A3DEF7438380DFF2C2FF900000E493B40205D2B1020021
:200C00000075905580FE2202EF64E493A3F8E493A34003F68001F208DFF48029E493A3F817
:200C20005407240CC8C333C4540F4420C8834004F456800146F6DFE4800B010204081020BD
:200C4000408090EFF1E47E019360BCA3FF543F30E509541FFEE493A360010ECF54C025E01D
:200C600060A840B8E493A3FAE493A3F8E493A3C8C582C8CAC583CAF0A3C8C582C8CAC58305
:200C8000CADFE9DEE780BE8E2C8F2D8C2E8D2F8A308B31E4F532E52D25E0547FFEE4240062
:200CA000F534EE3480F533E52DAE2C7806CEC313CE13D8F9F536543FF535E4F5F9D2FFA254
:200CC0000192FE852DC1E52CF5C2D3E5319400E53064809480406520010612F2AA74A0F040
:200CE0008535F9E4FF052FE52FAC2E7002052E14F5828C83E0F5360534E534AC337002054A
:200D00003314F5828C83E536F00FBF80D87F017E0012F0A2E5341534700215338534828557
:200D20003383E0B536F60534E5347002053374802531F53174FF3530F530808EC2FFD2FE34
:200D4000C3228F398E388D378C36753D02753E5C853E82853D83E0540F4440F0E054F0442E
:200D600005F0E53C2414FEE4353BA3A3F0A3CEF0E53E240812EFC87440F0E53E240912EF2F
:200D8000C8E53AF0AF39AE38E53E241012EFC812E17C12EFE0E53E240C12EFC812E17CE5CE
:200DA0003E240412EFC8E475F00112E12D12EFC4E4F0A3F07D14FCAF3EAE3D12F0B5EFF46F
:200DC000FFEEF4FE12EFC4EEF0A3EFF0AF39AE38AD37AC3675430575444612E1DEEF4E6051
:200DE000057EFF7FFF227E057F46E53C2414FBE4353BFA7D007C0812E64F228E2C8F2D8A7D
:200E0000308B318F828E83ECF0A3EDF0EF2402FFE43EFE853182853083E060210531E53117
:200E2000AC307002053014F5828C83E0FD0FEFAA0670010E14F5828A83EDF080D60FEFAC16
:200E40000670010E12F2D6F0853382853283E493601F0533E533AC327002053212F2D69395
:200E6000FD0FEFAA0670010E14F5828A83EDF080D70FEFAC0670010E12F2D6F0C3EF952D0F
:200E8000FFEE952CFE228F278B288A29892A7E017F1A8F828E83E0FD70070FBF00010E80CA
:200EA000F1EDF46055ED6527703A8F828E83A3E0FDC3952B50028D2BE4FDEDC3952B501C9C
:200EC000EF2DF582E43EF583A3A3E0AB28AA29A92A8D8275830012E0F90D80DE8F828E83C7
:200EE000A3E0FF220FBF00010E8F828E83E02FFFE43EFE0FBF00010E80987F0022E546243C
:200F000008F582E43545F583E582254AF582E43583F58322E5462406F582E43545F5832235
:200F2000AF42AE41AD40AC3FAB0BAA0AA909A808C302E14312E154AB6DAA6CA96BA86AC3E6
:200F400002E143F582E43557F5832212E1548F0B8E0A8D098C08E422E544254AF582E43519
:200F600043F58322E4F59075C00175C5FFC2B1A2979201A2969200200002FF2212E90EA2C5
:200F8000979201A2969200D2B1A201929512F139402812E365EF4E702890049CE06022D2D9
:200FA0009612E800EF4E7004C2968002D292D291E4F5F9C2FFD2FE7F0122D292D2917F0004
:200FC000227F0022E53E240AF582E4353DF58322FFFEFDFCAB3EAA3DA93CA83BC302E1431F
:200FE000AF6DAE6CAD6BAC6A22F582E43537F58322021200000215000001140000000000CA
:201000007E007F00EF240EF558E43EF55775570575582AE558241812EF4312EF347034E5B4
:2010200058240612EF43E0FEA3E064024E7024E558240E12EF4312EF4BFFE558240812EFD9
:2010400043E5822F12EF0CE0FE740C2FF8A6060FBF06E722E4FC85588285578375F008E9A8
:2010600002E1D2851382851283A3A322E5822404F582E43583F58312E17C092274082513B7
:20108000FFF513E43512FEF51222E55B2555F582E55A3554F58322E9FF7E007C067D0002FD
:2010A000E11BEF60010E90F3CBA3E583458270F9DFF4DEF222E4FAFB8F828E83AE02AF032B
:2010C000C0F075F000EC4D6023ED60010CE0A330F00B2FFF50100EEE700C0F80092EFE501D
:2010E000050FEF70010E05F0DDE3DCE1D0F0228F2F8E2E8D2D8C2C7E027F708F828E83E5B8
:2011000032F0A3E533F015828E83A3A3E530F0A3E531F0E5352408FBE43534FAEF2404F5D2
:2011200082E43EF583EAF0A3EBF0AF2FAE2E753A118A3BF53C12ED42227521FF7522FF201D
:20114000013F12F2A37490F07F147E0012F0A2908000E0F521A3E0F5227817A6210812E10E
:2011600088000000007818A6228521C18522C212F2BAE521B41F06E52264356002D322C368
:2011800022C3228E2C8F2D8C2E8D2FE4FE753000753122AD2FAC2E7F1112EAECEF4E602919
:2011A000853182853083A3A3E0FCA3E0B52DE4ECB52CE0E5312404F582E43530F583E0FE53
:2011C000A3E024F8FFEE34FFFE2214F5828E837401F0052AE52AAE292290027C12E1549013
:2011E000002E12E170C302E1438B828A8312E17C74042BFBE43A228E258F26E4F522F52393
:20120000F52422749C2DF582E43404F583227D007CD4C2FF8D828C83EEF0A3EFF08D828C82
:2012200083A3A37478F0A3E4F02404F582E43CF58312E1A10000180022AB07AA068B828A94
:2012400083E493FE740193FDEDFFE4FCFD90D04412E17C8B828A83A3A312E16090D0400260
:20126000E17C7F087ED4E4FDEDC3940450148F828E83A3A3E030E70A0D74082FFFE43EFE6B
:2012800080E6BD0404E4FEFF222290D400A3A3C083C082E044C8FFA3E0D082D083CFF0A35A
:2012A000EFF022E4F5F9D2FFC2FE90D55574AAF090AAAA7455F090D5552212F2A374F0F08E
:2012C0007F147E0012F0A2C2FFD2FE22C3E5239404E52264802214F5828C83E422000698F8
:0D12E0000000006F63746574006382536347
:00000001FF
