:06000000020006020741A8
:03006E000200711C
:0500710012008E80FE6C
:08007600AF82AE83EF60010EC2
:03007E0090F3CB31
:0D008100A3E583458270F9DFF4DEF2222250
:0E008E0075890175985275C80075CAAE75CB9C
:0E009C00FF75C830D2CAD28C75C00175C1ABD9
:0E00AA0075C23475C5FF12027412071CD2AF66
:0D00B80075820E1205FF75820412060D758B
:0900C5000F0175821C1203CB909F
:0900CE00099375F0801205D47548
:0900D7000F0275821C1203CB908C
:0900E00009A475F0801205D47525
:0900E9000F0375821C1203CB9079
:0C00F20009B575F0801205D4758200126B
:0900FE00060D7582071205FF755D
:090107000F057582001203CB9074
:0901100009C675F0801205D475D2
:090119000F067582001203CB9061
:090122000A0975F0801205D4757C
:09012B000F077582001203CB904E
:090134000A4B75F0801205D47528
:09013D000F077582001203CB903C
:090146000A6575F0801205D475FC
:09014F000F087582001203CB9029
:090158000AA775F0801205D475A8
:080161000F0A7582001203CBA6
:08016900120834AA828A08750D
:080171000900C3E5089481E5D3
:0A01790009648094804049E508B451
:060183008104E509601D86
:09018900E508B48204E509601CDC
:09019200E508B48304E509601BD3
:09019B00E508B48404E509601ACA
:0201A400801EBB
:0801A6007582071205FF8016A7
:0801AE007582091205FF800EA5
:0801B60075820E1205FF8006A0
:0601BE0075820A1205FF24
:0501C40075C11180A0CF
:0901C900E508B40D04E50960022B
:0201D200800E9D
:0E01D40075820D12049375820A1204938087BF
:0701E200850882120493025C
:0201E9000169AA
:0E0993002020204578616D706C652032302088
:0309A10020200013
:0E09A400202056474120616E642050532F32B0
:0309B20020200002
:0E09B50028632920456C656B746F7220323008
:0309C300303600CB
:0E09C60054686973206578616D706C652073EC
:0E09D400686F77732074686520757365206FF7
:0E09E20066206F75722056474120696E74655D
:0E09F00072666163652E205468697320696E1B
:0B09FE00746572666163652069730018
:0E0A0900636F6E6E656374656420746F2061A8
:0E0A17002054353120636F6E74726F6C6C6505
:0E0A2500722E20416C736F20696E636C7564D5
:0E0A3300656420697320612050532F322063C8
:0A0A41006F6E74726F6C6C657200CA
:0E0A4B00746F20636F6E6E65637420746F208D
:0C0A590061206B6579626F6172642E0091
:0E0A65005479706520616E79206D6573736140
:0E0A73006765206F6E20746865206B65796280
:0E0A81006F6172642E205573696E67204631D6
:0E0A8F00207468726F7567682046342077699E
:0A0A9D006C6C206368616E676500F1
:0E0AA70074686520636F6C6F7572206F662037
:0A0AB50074686520746578742E00E3
:07005F00750A00750B8075A6
:020066000C0785
:0E01EB007A007BAA90AA00E0FC53040F8A82DF
:0501F9008B83ECF022F5
:0E01FE007A007BAA90AA00E0FC740F5C44100B
:07020C00FC8A828B83F022C3
:0E0213007A007BAA90AA00E0FC740F5C4420E5
:07022100FC8A828B83F022AE
:0C0228001201EB7A007B807C0075242022
:0A0234007525607526098A828B8308
:0E023E008CF01208A91201FE7A007B807C0071
:07024C00752407752560759C
:0C02530026098A828B838CF01208A91205
:06025F0001EB750A0075B9
:0A0265000B80750C0790AA02E4F06C
:05026F0090AA01F0223D
:0D02740090AA037402F090AA047412F09096
:0E028100AA05741EF090AA067450F090AA0010
:06028F007402F0020228D7
:0E02950090AA07E0FA30E1F890AA06E0FA7BA2
:0C02A3000090AA05E0FC7D0024FFF5247B
:0C02AF00ED34FFF5258A828B831209567E
:0A02BB00AA82AB838A0A74802BF537
:0B02C5000B1201EB7A007B807C0090A4
:0E02D000AA06E0FD74802400FE7F0090AA06BE
:0A02DE00E0F8880D750E0090AA05E7
:0C02E800E0F8790024FFF524E934FFF56C
:0502F40025850D828547
:0C02F9000E83C002C003C004C005C00694
:0A030500C007120956858227858380
:0C030F0028D007D006D005D004D003D0C1
:06031B00028D248E258FE7
:0B032100268A828B838CF01208E5AA6C
:0A032C000AAB0B7C0090AA06E0FD6E
:060336008D2575260075FF
:0C033C0024208A828B838CF01208A91206
:0E03480001FE7A007B807C0090AA06E0FD7426
:0C035600802400FE7F0090AA06E0F888DA
:0A0362000D750E0090AA05E0F87971
:0A036C000024FFF524E934FFF52515
:0A037600850D82850E83C002C003CE
:0D038000C004C005C006C0071209568582E2
:0A038D0027858328D007D006D0058D
:0A039700D004D003D0028D248E257F
:0C03A1008F268A828B838CF01208E5AA5C
:0A03AD000AAB0B7C0090AA06E0FDED
:0603B7008D25752600757E
:0C03BD0024078A828B838CF01208A902AE
:0203C90001EB46
:0D03CB00AA8290AA06E0FBC3EA9B50449072
:0B03D800AA05E0FBC3E50F9B5039AB0A
:0A03E3000F7C0090AA06E0FD8D24B7
:0C03ED007525008B828C83C0021209561B
:0E03F900AB82AC83D0028A057E00ED2BFBEEBA
:0C0407003CFC90AA02EAF090AA01E50F6C
:08041300F08B0A74802CF50B3C
:01041B0022BE
:0C041C00AA82C0021201EBD002850A8205
:09042800850B83EAF01201FE8548
:060431000A82850B83E541
:070437000CFAF0050AE4B520
:04043E000A02050B9E
:0E0442001201EB7A027BAA8A828B83E004FC13
:0E0450008A828B83ECF090AA06E0FAECB502EB
:0E045E003390AA02E4F07A017BAA8A828B8393
:0E046C00E004FC8A828B83ECF090AA05E0FA93
:0E047A00ECB502141202957A017BAA8A828BDD
:0A04880083E0FC1C8A828B83ECF0F9
:010492002247
:0D049300AA82C3EA648094A0500302051BF6
:0B04A000C0021201EBD002850A828529
:0804AB000B83EAF01201FE854B
:0604B3000A82850B83E5BF
:0704B9000CFBF0050AE4B59D
:0404C0000A02050B1C
:0E04C4001201EB7B027CAA8B828C83E004FD8C
:0E04D2008B828C83EDF090AA06E0FBEDB50363
:0304E00002800196
:0104E30022F6
:0E04E40090AA02E4F07B017CAA8B828C83E05C
:0E04F20004FD8B828C83EDF090AA05E0FBEDFB
:05050000B503028001BB
:0105050022D3
:0E0506001202957B017CAA8B828C83E0FD1D86
:070514008B828C83EDF022C5
:05051B00BA0802804354
:05052000BA0A0280058B
:05052500BA0D58804AE8
:0E052A0090AA01E0FA90AA05E0FB7C001BBB42
:03053800FF011CA4
:0E053B007D00C3EA9BED64808CF063F0809538
:0E054900F0501490AA02E0FA90AA01E0FB74B0
:09055700012BF50F8A820203CB8F
:03056000020295FF
:0C05630090AA02E0FA1A90AA01E0F50F3D
:05056F008A820203CBAB
:0C05740090AA01E0F50F7582000203CB95
:010580002258
:0D058100AA8290AA06E0FBC3EA9B504690B8
:0B058E00AA05E0FBC3E5109B503BAB4F
:0A059900107C0090AA06E0FD8D24FE
:0C05A3007525008B828C83C00212095663
:0E05AF00AB82AC83D00274802CFCEA2BFAE401
:0805BD003CFD7B008511248543
:0305C50012257587
:0B05C80026808A828D838BF002086978
:0105D3002205
:0605D400AA82AB83ACF02B
:0E05DA008A828B838CF0120973FD60188D826B
:0505E8000ABA00010B3E
:0E05ED00C002C003C004120493D004D003D097
:0305FB000280DC9F
:0105FE0022DA
:0C05FF00AA8274F0550CFB740F5A4BF5E7
:02060B000C22BF
:0C060D00AA82740F550CFBEAC454F0FAEA
:040619004BF50C226F
:0C061D00AA82AB137C0090AA06E0FD8DC1
:0A062900247525008B828C83C0022B
:0E063300120956AB82AC83D0027D00EA2BFB8D
:0E064100ED3CFC74802CFCC003C0041201FED2
:0C064F00D004D003E515C454F0FA740F79
:0B065B00551442028B828C83EAF002EF
:0206660001EBA6
:020668007A0016
:03066A00BA0300D0
:05066D00400302070735
:0E067200D2DF7582FFC002120714D0027B6433
:0E0680001BEB601330DB10900001C002C003C2
:09068E00120076D003D00280E9CD
:06069700EB7003020703F3
:02069D007B00E0
:03069F00BB640039
:0D06A200501420D811900001C002C00312B6
:0906AF000076D003D0020B80E7B5
:0506B800BB6402804656
:0E06BD00C00212070BAB82D002BBFA3A7B00E0
:0306CB00BB64000D
:0D06CE00501420D81190000AC002C0031281
:0906DB000076D003D0020B80E789
:0506E400BB6402801A56
:0E06E900C00212070BAB82D002BBAA047582BE
:0206F7000122DE
:0A06F900900064C002120076D002E7
:040703000A02066A76
:0407070075820022D5
:05070B0010D80280FB84
:0407100085D98222E3
:02071400AA82B7
:0607160020DBFD8AD92260
:05006800C200C201C24C
:01006D000290
:04071C0075212F759F
:03072000222F7510
:0C0723002300C288C28975A801C2D8C298
:0E072F00DC120668E5827009900BDF75F08021
:03073D000205D4DE
:010740002296
:0E074100C0E0C0F0C082C083C0D075D01810D8
:04074F00D802800943
:0907530020D90685D9821207693C
:0D075C00C2DCD0D0D083D082D0F0D0E0320B
:08076900AA8230000302080718
:05077100BA1202800B2A
:05077600BA59028009E0
:06077B00BAF009D20022D1
:03078100D2012280
:03078400D201227D
:060787003002030207FB33
:05078D002001377B0094
:0C079200EB2B900ABF93FCB51A02800606
:06079E00EC60030B80EE8D
:0D07A400EB2BFB900ABF93FCB51A028001FD
:0107B1002225
:0A07B200EB24BFFBE4340AFC8B8249
:0B07BC008C83A3E493FBF58202081974
:0207C7007B00B5
:0C07C900EB2B900B4F93FCB51A0280063E
:0607D500EC60030B80EE56
:0D07DB00EB2BFB900B4F93FCB51A32EB2477
:0A07E8004FFBE4340BFC8B828C8382
:0907F200A3E493FBF5820208194F
:0C07FB007582201208197582200208196E
:07080700C200BA12028005D5
:05080E00BA5907800348
:03081300C20122FD
:02081600C2011D
:0108180022BD
:0A081900AA8274F025234012A821E2
:08082300A61A05210523C3E517
:06082B0021943F4003751B
:02083100212F75
:0108330022A2
:09083400E52360FCA82286020500
:05083D0022C3E5229436
:050842003F4003752298
:010847002F81
:0508480015238A822245
:08084D00E52370047401800131
:01085500E4BE
:04085600FAB40100EF
:09085A00E433FA60047A01800223
:020863007A0019
:04086500EA24FF2260
:0E0ABF000D090E7C157116311A7A1B731C611D
:0E0ACD001D771E3221632278236424652534B0
:0E0ADB00263329202A762B662C742D722E3598
:0E0AE900316E32623368346735793636392C17
:0E0AF7003A6D3B6A3C753D373E38412C426BF0
:0E0B05004369446F45304639492E4A2D4B6CEA
:0E0B13004CF84D704E2B52E654E5555C5A0DD1
:0E0B21005BA85D27613C660869316B346C3758
:0E0B2F007030712C7232733574367538792B34
:0E0B3D007A337B2D7C2A7D3905810682048364
:040B4B000C84000016
:0E0B4F000D090EA7155116211A5A1B531C41F1
:0E0B5D001D571E22214322582344244525A45F
:0E0B6B00262329202A562B462C542D522E25A7
:0E0B7900314E32423348344735593626394C16
:0E0B87003A4D3B4A3C553D2F3E28413B424BE8
:0E0B95004349444F453D4629493A4A5F4B4C7F
:0E0BA3004CD84D504E3F52C654C555605A0DA9
:0E0BB1005B5E5D2A613E660869316B346C370D
:0E0BBF007030712C7232733574367538792BA4
:0E0BCD007A337B2D7C2A7D39058106820483D4
:040BDB000C84000086
:0E0BDF00505332204B6579626F617264206E54
:090BED006F7420666F756E6400E0
:0808690085822785832885F0B4
:0408710029AD24AEDB
:0408750025AF26A8DD
:0408790027A928AAD9
:01087D002951
:0E087E008D828E838FF0120973FBA3AD82AEC4
:0E088C0083888289838AF0EB12093DA3A8823B
:0A089A00A983EB70DF852782852813
:0508A400838529F0220C
:06003500E478FFF6D8FD9F
:0808A90085822785832885F074
:0408B10029AD27AE98
:0408B50028AF29A897
:0308B90025A92648
:0908BC008802890318B8FF011934
:0C08C500EA4B60128D828E838FF0E524D8
:0A08D10012093DA3AD82AE8380E161
:0708DB008527828528838533
:0308E20029F022D8
:0A08E500AA82AB83ACF08A298B2AAB
:0508EF008C2BA824A9D8
:0408F40025AD268880
:0408F8002C892D8D8D
:0408FC002EA827A952
:0109000028CE
:090901008805890618B8FF0119E8
:0A090A00ED4E6025852C82852D83BB
:0A091400852EF0120973FDA3858201
:0A091E002C85832D8A828B838CF0D8
:0B092800ED12093DA3AA82AB8380CE34
:07093300852982852A8385D6
:03093A002BF0227D
:080013007900E94400601B7A4A
:05001B0000900BF678D7
:030020000075A0C8
:0A00230000E493F2A308B800020500
:08002D00A0D9F4DAF275A0FF7E
:0E093D0020F71030F6118883A88220F507F607
:05094B00A88375830084
:010950002284
:03095100F280F73A
:02095400F0228F
:0B095600E5828524F0A4C582C0F08576
:0A09610025F0A4D0F025F0C5838531
:08096B0024F0A42583F583228A
:08003B007800E84400600A7936
:030043000075A0A5
:0600460000E4F309D8FC00
:08004C007800E84400600C7923
:0B00540000900000E4F0A3D8FCD9FAF3
:0300060075813EC3
:0A00090012098FE582600302007106
:0E09730020F71430F6148883A88220F507E6DA
:06098100A883758300222B
:03098700E280F714
:03098A00E49322D1
:02098D00E02266
:04098F00758200224B
:00000001FF
