:030000000200817A
:0300DA000200031E
:0500030012000880FE60
:0C0008007A017B007C80750800750905FA
:080014007F00780079007D00F7
:0E001C00C3EF9480E89400E99400ED94005046
:01002A001DB8
:0C002B00EF2400F582E83400F5838F0616
:0E003700EEF00FBF00DF08B800DB09B900D7FC
:030045000D80D457
:080048007D407E0D7F0378006E
:0C0050008B828C83EAF08508828509838E
:0E005C00EAF01DBDFF091EBEFF051FBFFF011C
:01006A00187D
:06006B00ED4E4F4870DF6E
:05007100EA2AFA60021A
:0200760080D038
:040078007A0180CCBD
:01007C002261
:0600B000E478FFF6D8FD24
:08008E007900E94400601B7ACF
:05009600009000DD7880
:03009B008075A0CD
:0C009E0000E493F2A308B8000205A0D90A
:0600AA00F4DAF275A0FF7C
:0800B6007800E84400600A79BB
:0300BE000075A02A
:0600C10000E4F309D8FC85
:0800C7007880E84400600C7928
:0B00CF0001900000E4F0A3D8FCD9FA77
:030081007581097D
:0A00840012007DE582600302000314
:03007D0075820089
:01008000225D
:00000001FF
