:03000000020003F8
:03005C0002005F40
:05005F001200B680FE56
:0E00640075985275890175C80075CAE675CB8E
:0A007200FF75C830D2CA7590002255
:08007C00AF82AE83EF60010EBC
:0300840090E89071
:0D008700A3E583458270F9DFF4DEF222224A
:08009400AF82AE83EF60010EA4
:03009C0090FFFAD8
:0D009F00A3E583458270F9DFF4DEF2222232
:0200AC00AA8226
:0800AE003099FD8A99C29922E4
:0700B60012011A120064128E
:0200BD0008CF6A
:0B00BF0012096F1209D2E58260F612F0
:0A00CA000150E58260EF7582081214
:0700D400012E8582387582C0
:0600DB000812094F80DE4F
:0B00E100E582FA30E005439002800346
:0300EC005390FD31
:0900EF00EA30E1054390048003AE
:0300F8005390FB27
:0800FB00EA30E2044390082200
:040103005390F722FC
:07010700751201751301756B
:06010E00140175150175D6
:060114001601751701221F
:02011A007A0069
:03011C00BA060020
:0B011F005009EA2418F876000A80F26C
:04012A00751E00221C
:0A012E00AA827B007C40753912752F
:060138003A00753B407522
:0A013E003C06E4F53D8A828B838CB9
:08014800F0120A5B851E822201
:0D015000C2B1E580C423541FFA74035AF5B0
:0A015D000F85900ED2B13085047AB0
:0301670002800211
:02016A007A0019
:05016C008A1EE510B53C
:050171000E10E511B5C0
:040176000F028002F2
:02017A008007FC
:07017C00E51FB51E02800D16
:04018300850E108550
:030187000F1185D0
:06018A001E1F7582002219
:020190007A00F3
:03019200BA0600AA
:0A0195005011EA2418F8EA2412F9C8
:09019F008703A60377000A80EA39
:0401A8007A007B005E
:0301AC00BB08008D
:0C01AF00505FE50E30E021BA0602801718
:0A01BB008A040AEC2412F8EB24EC8D
:0C01C500F582E4340AF583E493FCF68034
:0101D1000528
:0501D200120107803955
:0A01D700E50F30E023BA060280199C
:0B01E1008A040AEC2412F874082B2496
:0A01EC00ECF582E4340AF583E49395
:0401F600FCF680058E
:0501FA00120107801155
:0801FF00E50EC313FC8C0EE5B4
:090207000FC313FC8C0F0B809C4B
:07021000E51FB51E0280048A
:0402170075820122C9
:02021B007A0067
:03021D00BA06001E
:0A0220005019EA2412F88603EA24BC
:0A022A0018F88604EBB50402800406
:0402340075820122AC
:030238000A80E257
:04023B0075820022A6
:0D0AEC001E1F20212223242505040706E1FA
:06023F0090000A12009479
:0E024500907F40E0FA20E1F8907F42E0FABAA4
:0E025300021F7A637B7F8A828B83E070147AAD
:0E026100407B7F907F40E0FC4304028A828B4A
:05026F0083ECF080D1DA
:010274002267
:0A0275007A00E53720E10302034997
:07027F00E523B40102802118
:07028600E523B40202802809
:07028D00E523B40302802FFA
:08029400E523B4210302032A53
:08029C00E523B422030203373D
:0302A4000203440E
:0502A700E52424FAF536
:0502AC0034E4340BF501
:0402B10035020349C6
:0502B500E524240CF516
:0502BA0034E4340CF5F2
:0402BF0035020349B8
:0902C300E52224FB405AE5222546
:0402CC002225229035
:0302D00002D373E3
:0702D3000202E20202EF0249
:0602DA0002FC0203090210
:0202E000031603
:0502E200E52424F9F5FC
:0502E70034E4340AF5C7
:0302EC0035805A00
:0502EF00E52424FDF5EB
:0502F40034E4340AF5BA
:0302F90035804D00
:0502FC00E5242419F5C2
:0503010034E4340BF5AB
:03030600358040FF
:05030900E524246BF562
:05030E0034E4340BF59E
:03031300358033FF
:05031600E5242499F527
:05031B0034E4340BF591
:03032000358026FF
:07032300E4F534F535801FFD
:05032A00E524240CF5A0
:05032F0034E4340CF57C
:03033400358012FF
:05033700E52424BBF5E4
:05033C0034E4340BF570
:03034100358005FF
:05034400E4F534F5357D
:08034900E52124FF506D7B004B
:03035100BB0800E6
:0A0354005027EB242CF8EB2534F5BC
:0B035E0082E43535F583E493FCF615CE
:060369002105248B02E5D2
:07036F002170085337FC4325
:0403760037108003B9
:03037A000B80D421
:0B037D000AE53630E0147B407C7F90E6
:0E0388007F40E0FD4305048B828C83EDF08006
:010396001254
:0E0397007B407C7F907F40E0FD5305FB8B8216
:0403A5008C83EDF068
:0903A9006336018A82120A01E5A3
:0803B2003730E40612023F534C
:0203BA0037EF1B
:0103BC00221E
:0503BD00433703852F0A
:0303C20023852E62
:0503C50022752400E593
:0603CA0023B401028020B3
:0703D000E523B40202801FC7
:0703D700E523B40302801EC0
:0703DE00E523B42102806851
:0803E500E523B42203020459D0
:0303ED0002045EA9
:0603F000752112020473E6
:0603F600752122020473D0
:0903FC00E52224FB4046E5222520
:0404050022252290FA
:03040900040C736D
:07040C0002041B020424029C
:06041300042D0204360274
:02041900043F9E
:09041B00900AF9E493F521804FE9
:09042400900AFDE493F5218046E5
:09042D00900B19E493F521803DC8
:09043600900B6BE493F521803476
:09043F00900B99E493F521802B48
:05044800752100802673
:09044D00752412900C1EE493F5D5
:0304560021801AE8
:0504590075213F801534
:0C045E007521007A407B7F907F40E0FC1D
:09046A004304088A828B83ECF044
:09047300E533700AAA32C3EA95D0
:05047C002150028A215D
:03048100020275FF
:0E0484007A407B7F907F40E0FC4304048A8234
:0A0492008B83ECF0758200120A0162
:0E049C00907F40E0FA20E1F8907F42E0FABA4B
:0404AA0001028014B7
:0E04AE007A407B7F907F40E0FC4304028A820C
:0604BC008B83ECF080DAF6
:0704C200907F54E52EF022AB
:0B04C9007403552CFA600BBA0103020B
:0204D400053DE4
:0504D600BA025280058E
:0504DB005337DF805DD6
:0C04E00074035530FA6005BA012D801439
:0E04EC007A407B7F907F40E0FC5304F78A82C9
:0604FA008B83ECF0803D55
:0E0500007A447B7F907F44E0FC5304F78A82AC
:09050E008B83ECF05336FD8026CE
:0E0517007A407B7F907F40E0FC4304088A829C
:060525008B83ECF0801254
:0E052B007A407B7F907F40E0FC4304088A8288
:040539008B83ECF0D4
:0E053D007A407B7F907F40E0FC4304048A827A
:0A054B008B83ECF0758200020A01B8
:0B0555007403552CFA600BBA0103027E
:0205600005C6CE
:05056200BA024F800504
:05056700433720805A1B
:0C056C0074035530FA6005BA012A8014AF
:0E0578007A407B7F907F40E0FC4304088A823B
:060586008B83ECF0803ACB
:0E058C007A447B7F907F44E0FC4304088A821F
:06059A008B83ECF08026CB
:0E05A0007A407B7F907F40E0FC4304088A8213
:0605AE008B83ECF08012CB
:0E05B4007A407B7F907F40E0FC4304088A82FF
:0405C2008B83ECF04B
:0E05C6007A407B7F907F40E0FC4304048A82F1
:0A05D4008B83ECF0758200020A012F
:0605DE00AA2C752C00752B
:0A05E4002D00530203BA0002800A42
:0505EE00BA0102805B70
:0505F300BA0246800A77
:0A05F800E53730E551752C02804C08
:0C06020074035530FA6005BA011C800D2D
:0C060E00907F40E0FA30E338752C01804A
:01061A0033AC
:0C061B00907F44E0FA30E32B752C018046
:0106270026AC
:0E0628007A407B7F907F40E0FC4304088A828A
:060636008B83ECF0801242
:0E063C007A407B7F907F40E0FC4304088A8276
:04064A008B83ECF0C2
:0E064E007A407B7F907F40E0FC4304048A8268
:0D065C008B83ECF0758202120A0102023F4E
:0A066900E52EF52060147A447B7F33
:0E067300907F44E0FC4304018A828B83ECF00C
:020681008005F2
:05068300907F44E4F04B
:0E0688007A407B7F907F40E0FC4304048A822E
:0A0696008B83ECF0758200020A016C
:0A06A00085202C7A407B7F907F407C
:0E06AA00E0FC4304048A828B83ECF07582012D
:0606B800120A0102023FDC
:0E06BE007A407B7F907F40E0FC4304048A82F8
:0A06CC008B83ECF0758200020A0136
:0C06D600752C007A407B7F907F40E0FC98
:0D06E2004304048A828B83ECF075820112C0
:0506EF000A0102023FB8
:0806F400752C00752D007A0041
:0306FC00BA06003B
:0A06FF00501174022A242CF8EA249A
:0907090025F98703A6030A80EA22
:0C071200E53630E0147A407B7F907F4099
:0D071E00E0FC4304048A828B83ECF080121F
:0E072B007A407B7F907F40E0FC5304FB8A8283
:040739008B83ECF0D2
:0A073D00633601758208120A0102FA
:02074700023F6F
:04074900433704220C
:0C074D00E53730E009907F747401F00281
:02075900027527
:01075B00227B
:07075C00E53730E367852B50
:060763002C752D007A0048
:03076900BA0600CD
:0A076C00501174022A242CF8EA242C
:0907760025F98703A6030A80EAB5
:0C077F00E53630E1147A447B7F907F4423
:0D078B00E0FC4304048A828B83ECF08012B2
:0E0798007A447B7F907F44E0FC5304FB8A820E
:0407A6008B83ECF065
:0C07AA00633602758208120A2E7A447B26
:0E07B6007F907F44E0FC4304028A828B83EC38
:0407C400F05337F7C0
:0107C800220E
:0E07C9001209D67A427B7F8A828B83E060031E
:0307D7000208A570
:0D07DA00907F40E0FA30E3127A407B7F9080
:0D07E7007F40E0FC5304F78A828B83ECF026
:0C07F400907F747401F04336017460556E
:0A0800002CFA6009BA200302086D0B
:03080A000208924F
:0B080D00E52DFA24F44046EA2A2A9068
:03081800081B7347
:07081B0002084802083F0239
:06082200085A0208510211
:06082800085A02084B0211
:06082E00084502085A0211
:06083400084202084E021A
:05083A000857020854FC
:03083F000204C9E7
:030842000206A00B
:030845000203BDEE
:030848000205DEC8
:03084B0002048420
:03084E0002066936
:0308510002055548
:030854000206BEDB
:030857000206D6C0
:0E085A007A407B7F907F40E0FC4304088A8256
:050868008B83ECF0227F
:07086D00AA2DBA010280056B
:05087400BA0908800331
:030879000206F480
:03087C0002074927
:0E087F007A407B7F907F40E0FC4304088A8231
:05088D008B83ECF0225A
:0E0892007A407B7F907F40E0FC4304088A821E
:0508A0008B83ECF02247
:0908A5005337FCE53730E22185F0
:0C08AE002C821200E17A407B7F907F409A
:0E08BA00E0FC4304048A828B83ECF07582001C
:0608C800120A015337FB88
:0108CE002207
:0B08CF005337FC907F54E4F0D2B79048
:0E08DA007F507431F0907FE0E4F0907F527414
:0E08E800FFF0907F407403F0907F747401F075
:0D08F600907F647401F0907F947401F09085
:0E0903007F847401F090006412007CC2B7750E
:06091100210075220075B3
:06091700230075240075A9
:07091D0037207536007A0057
:03092400BA060010
:0B0927005009EA2425F876000A80F24F
:0D093200907F52E0FA30E2147A527B7F9001
:0E093F007F52E0FC4304048A828B83ECF0803C
:01094D00E4C5
:01094E002286
:08094F00AA828A39753A00758D
:070957003B40753C06E4F58E
:08095E003D90002575F04012E8
:040966000A5B85386B
:05096A002B43370822B9
:0E096F007A517B7F8A828B83E070147A547BEE
:0E097D007F8A828B83E06009907F44E4F090D3
:03098B007F54F0A6
:0E098E00907F52E0FA30E028907F5274FFF024
:0D099C00907F42E0FABA010512074D80037A
:0309A9001207C969
:0E09AC007A407B7F907F40E0FC4304028A8209
:0409BA008B83ECF04F
:0E09BE00907F44E0FA30E00B907F44E0FA2096
:0509CC00E10302075CDD
:0109D1002203
:0409D20085208222D8
:0E09D6007A637B7F8A828B83E0601F907F6351
:0809E400E0FA24F750027A0842
:0209EC007B008E
:0C09EE00C3EB9A500DEB242CF8907F60B6
:0609FA00E0FCF60B80EEAC
:010A000022D3
:070A0100AA8253023F7B00B3
:0C0A0800C3EB9A500E907F70EB242CF88A
:070A14008604ECF00B80EDFD
:0E0A1B007A407B7F907F40E0FC4304028A8299
:050A29008B83ECF022BC
:070A2E00AA8253023F7B0086
:0C0A3500C3EB9A500E907F90EB242CF83D
:070A41008604ECF00B80EDD0
:0E0A48007A447B7F907F44E0FC4304028A8264
:050A56008B83ECF0228F
:040AF90004030900E9
:0E0AFD001C034600480053002D004800610015
:0E0B0B00670065006E00620065007200670002
:0E0B1900520345006C0065006B0074006F0015
:0E0B27007200200046005000470041002000F0
:0E0B35004B006500790062006F0061007200E5
:0E0B430064000A0041006E006400720065004C
:0E0B510061007300200056006F00670067000F
:0C0B5F0065006E00650064006500720017
:0E0B6B002E035300740061006E0064006100F0
:0E0B790072006400200043006F006E006600F2
:0E0B870069006700750072006100740069006B
:040B95006F006E007F
:0E0B990022034B0065007900700061006400CB
:0E0BA7002D0049006E007400650072006600AB
:060BB50061006300650011
:0E0BBB0005010906A101050719E029E715004B
:0E0BC9002501750195088102750895018101CD
:0E0BD7000508190129037501950391027505A2
:0E0BE500950191010507190029651500256588
:070BF300750895068100C0A2
:0E0BFA001201000100000008E903036501017B
:040C080001020001E4
:0E0C0C0009022200010103A064090400000196
:0E0C1A0003000104092100010001223F000730
:060C28000581030800082D
:06003200E478FFF6D8FDA2
:0A0A5B00AA82AB83ACF08A3E8B3F09
:050A65008C40A839A936
:040A6A003AAD3B88DE
:040A6E004189428DEB
:040A720043A83CA9B0
:010A76003D42
:090A77008805890618B8FF011971
:0A0A8000ED4E60258541828542831A
:0A0A8A008543F0120ACCFDA385821B
:0A0A9400418583428A828B838CF037
:0B0A9E00ED120AB3A3AA82AB8380CE46
:070AA900853E82853F838535
:030AB00040F022F1
:080010007900E94400601B7A4D
:0500180000900C2E78A1
:03001D000075A0CB
:0A00200000E493F2A308B800020503
:08002A00A0D9F4DAF275A0FF81
:0E0AB30020F71030F6118883A88220F507F690
:050AC100A8837583000D
:010AC600220D
:030AC700F280F7C3
:020ACA00F02218
:080038007800E84400600A7939
:030040000075A0A8
:0600430000E4F309D8FC03
:080049007800E84400600C7926
:0B00510000900000E4F0A3D8FCD9FAF6
:03000300758143C1
:0A000600120AE8E582600302005FC1
:0E0ACC0020F71430F6148883A88220F507E680
:060ADA00A88375830022D1
:030AE000E280F7BA
:030AE300E4932277
:020AE600E0220C
:040AE80075820022F1
:00000001FF
