:030000000200B843
:03011100020003E6
:0500030012000880FE60
:0B0008007A017B027508007509807505
:0C0013000A00750B90780079007E007FD9
:01001F0000E0
:0E002000C3E89480E99400EE9400EF94005041
:01002E001DB4
:0C002F00E82400F582E93400F583880421
:0E003B00ECF008B800DF09B900DB0EBE00D7FC
:030049000F80D451
:08004C007C007D007E007F00B6
:0E005400C3EC94A0ED9486EE9401EF9400505E
:010062003D60
:0C006300850882850983E0F8EA620085C8
:08006F000882850983E8F08591
:0B0077000A82850B83E0F8EB62008535
:0C0082000A82850B83E8F0900500EAF08C
:0E008E00A3E4F00CBC00BF0DBD00BB0EBE0015
:04009C00B70F80B466
:0500A000EA2AFA6002EB
:0200A5008002D7
:0200A7007A01DC
:0600A900EB2BFBBB809D68
:0400AF007B028099B7
:0100B300222A
:0600E700E478FFF6D8FDED
:0800C5007900E94400601B7A98
:0500CD00009001147811
:0300D2008075A096
:0C00D50000E493F2A308B8000205A0D9D3
:0600E100F4DAF275A0FF45
:0800ED007800E84400600A7984
:0300F5000075A0F3
:0600F80000E4F309D8FC4E
:0800FE007880E84400600C79F1
:0B01060001900000E4F0A3D8FCD9FA3F
:0300B80075810B44
:0A00BB001200B4E5826003020003A6
:0300B40075820052
:0100B7002226
:00000001FF
