:20000000020187EAF0A3EBF022FFFF020B06E493FC740193FD22E493FA740193FB2200009B
:200020000000FF022465900021E0FF1FEF600A900021EFF0E4FEFF80239000217406F0906F
:200040000020E0FF0F8F23740465237005120A84800AAF23900020EFF012005D22900008B7
:20006000E0FFBF02028003020128900009E0FD7F01C3ED9F50030201587F04D3ED9F400318
:2000800002015890015BED2D500205832582F58250020583740193C0E0E493C0E0227B12BF
:2000A000E4FCFDE4FEFF1204FD7EF17F0002015C900032120AAFEE4F605190001CE0F52303
:2000C000A3E0F524A3E0F525A3E0F526900032120AAFAB07AA06E4F9F8900034120171122B
:2000E00024C890001C1204F17B189000321206C7900038120AAF1204FD7423122CC790005B
:200100001C1204F17EF17F0002015C9000217428F0E4FEFF02015C7B19E4FCFDE4FEFF128E
:2001200004FD7EF17F008034900008E0FFBF0128900009E0FF6406700F9000101201711226
:20014000276A7EE37F008014900020E4F09000217428F0E4FEFF80047ED17F0022009E00E6
:20016000B001170117E0F8A3E0F9A3E0FAA3E0FB22E0FCA3E0FDA3E0FEA3E0FF22121884FF
:2001800012186E1217DC22E5A8C2AF5490758143A881760018B81FFAC0E012017DD0A80253
:2001A0000B8F8E298F2A7C007D147E017FCE12265B74EC252AF52A74FF3529F5299001DAA1
:2001C000E0FF74B02FFF8F2B801574F0252BF52B74FC252AF52A74FF3529F529122141E5A5
:2001E0002B70E7752B02752C74E4F52D852B83852C82E0FFBF0202800302029EAE2BAF2CDF
:2002000074082FFFE43EFE8E838F821201719002E0120165C31225F5600302029EAE2BAF08
:200220002C740C2FFFE43EFE8E838F821206C79001CE120AAFED6F7004EC6E600302029E6A
:20024000AE2BAF2C740E2FFFE43EFE8E838F821206C79001D0120AAFED6F7004EC6E600261
:20026000803C7A007B327C007D08AE2BAF2C120B72AE29AF2A1206CD8E2E8F2F7A007B3221
:20028000AC2BAD2C7E007F08120B72AF2DAD077C00AE2EAF2FED2FFFEC3EFE020388052D52
:2002A0007432252CF52CE4352BF52B7D02AF2DC3EF9D50030201EC9001DBE0FF5402FF70C6
:2002C000077EF87F00020388752B02752C74E4F52D852B83852C82E0FFBF02028003020348
:2002E0005AAE2BAF2C0FEF70010E850683850782E0FF600302035AAE2BAF2C740E2FFFE46E
:200300003EFE8E838F821206C79001D0120AAFED6F7004EC6E600280417A007B327C007D07
:2003200008AE2BAF2C120B72AE29AF2A1206CD8E2E8F2F7A007B32AC2BAD2C7E007F081275
:200340000B72E52E452F6012AF2DAD077C00AE2EAF2FED2FFFEC3EFE802E052D7432252C47
:20036000F52CE4352BF52B7D02AF2DC3EF9D50030202D19002E01201657C027D08AE29AFB3
:200380002A1220A17EF07F00221221BC8E248F257F005306F0EF7005EE644060077EC07F1A
:2003A0000002045F1221BC8E268F271221BC1221BC53063FEE4F60077EC17F0002045F1230
:2003C00021BC8F281221BC1221419002E01204F112214174EC2527F52774FF3526F526AEDA
:2003E00024AF257D00EE540FFC7F08AE04ED8FF005F08005CEC313CE13D5F0F8FF74FB2F3D
:20040000FF74FF3EFE8E248F25800F12214174FC2527F52774FF3526F526AC24AD2574FFEF
:200420002DFF74FF3CFE8E248F25EC4D70DD740165287009AE26AF27122B02802274066512
:20044000287009AE26AF271201A28013741165287009AE26AF2712280F80047EC27F002226
:20046000EF60010E90FECDA3E583458270F9DFF4DEF2229002E8120AAFEE4F7005E4FF02E7
:2004800004EA9002E81206C774012DFFE43CFE9002E8120AC1850483850582E0FF646160E3
:2004A0000AEF64416005E4FF0204EAE4FB9002E81206C774012DFFE43CFE9002E8120AC118
:2004C000850483850582E0FF74D02FFD7F09D3ED9F500C7F0AEB8FF0A4FFED2FFB80CEED8A
:2004E000640D6004E4FF8002AF0322ECF0A3EDF022ECF0A3EDF0A3EEF0A3EFF022A804A99A
:20050000058E0C8F0D900016120AAF9001CE120AC1900014120AAF9001D0120AC19001DCD9
:20052000E4F0A37464F090001CE0F508A3E0F509A3E0F50AA3E0F50BEB5402FF6014E50BC9
:20054000150B700EE50A150A7008E509150970021508122CF89001D21204F1900018120181
:20056000719001D61204F19001DBEBF090001012017174301222727A007B0AAC00AD01AEE0
:200580000CAF0D120587228C348D358E368F378A388B399001DA7450F09001DEE4F0A3F04C
:2005A0009002E41201719001E21204F17430122CC79001E61204F19001EAE4F0A37406F044
:2005C000AE34AF3574142FFFE43EFE9001EC120AC1AC34AD35AE36AF37120B3CAA06AB07DE
:2005E0007C007D0C7E017FE2120B3FAA06AB077C007D147E017FCE120B3FEFF4FFEEF4FE61
:200600009001DE120AC19001EE7445F0A3E4F0AE34AF3574282FFFE43EFE9001F0120AC1E1
:200620009001F2E4F0A3F09001F47440F0A3E4F09001F67464F09001F77406F09001F8E482
:20064000F0A3F09002E41201719001FA1204F17430122CC79001FE1204F17C007D147E01C0
:200660007FEE120B3CEFF4FFEEF4FE9001F8120AC1AE34AF3574362FFFE43EFE12253C7CDF
:20068000007D06AE38AF391227237C007D067E007F001227237E087F001221EA7C007D1426
:2006A0007E017FEE1227237C007D147E017FCE122723AC34AD35AE36AF37122723122201A0
:2006C00022E0FAA3E0FB22E0FCA3E0FD228E2E8F2F9001DBE0FF5404FF600F122C1F900088
:2006E00009E4F07EF97F00020A799000217406F0900009E0FD7F04D3ED9F4003020A5C90F4
:200700000A7AED2D500205832582F58250020583740193C0E0E493C0E0229001DBE0FF54E9
:2007200002FF7003020A5C90020812017190000A1204F190020C120AAF90000E120AC190AA
:2007400002E01201719000101204F19001CE120AAF900014120AC1AE2EAF2FAB07AA06E4E1
:20076000F9F89001D2120171122AF5E4F8F9FA7B01122AF59000181204F1AF3D7E0090004B
:200780001C120AC190001EE4F0A3F07B12E4FCFDE4FEFF1204FD9000097401F0900020E45B
:2007A000F07EF27F00020A799001DBE0FF5410FF7003020A5C7C007D64AE2EAF2FD3EF9DD6
:2007C000EE9C4006752E00752F649001D2120165900018120171C31225F560077EF37F0051
:2007E000020A799000097402F0AE2EAF2FAB07AA06E4F9F8900018120171122AF59000187F
:200800001204F1AC2EAD2F7E027F1012265BAE2EAF2F90020E120AC1900022120AAFEE4F88
:2008200060459000241201659001D6120171C31225F57033900028120AAF122CD590003014
:20084000120AAF122CD5900038120AAF122CD5900022E4F0A3F090002AE4F0A3F090003218
:20086000E4F0A3F002093E90002A120AAFEE4F605990002C1201659001D6120171C3122534
:20088000F57047900030120AAF122CD5900038120AAF122CD5900024120171900034120456
:2008A000F1900028120AAF900038120AC1900022120AAF900032120AC190002AE4F0A3F0E2
:2008C000900022E4F0A3F002093E900032120AAFEE4F606A9000341201659001D6120171FB
:2008E000C31225F57058900038120AAF122CD590002C1201719000341204F1900030120AB4
:20090000AF900038120AC190002A120AAF900032120AC190002412017190002C1204F190D4
:200920000028120AAF900030120AC1900022120AAF90002A120AC1900022E4F0A3F0900169
:20094000DBE0FF5401FF7020E52E452F700D9001DBE0FF5402FF70030209AD7B10E4FCFDC2
:20096000E4FEFF1204FD80459001DBE0FF5401FF603BE4F8F9FA7B01900018120171122AD1
:20098000F59000181204F17B19E4FCFDE4FEFF1204FDE4F8F9FA7B0190001C120171122A97
:2009A000F590001C1204F19000097404F0900032120AAFEE4F7005900020E4F07EF57F00D9
:2009C000020A799001DBE0FF5410FF7003020A5C9001D2120165900018120171C31225F513
:2009E00060077EF37F00020A799001DBE0FF5401FF6028E4F8F9FA7B01900018120171126B
:200A00002AF59000181204F17B10E4FCFDE4FEFF1204FD122C1F900009E4F0900020E4F05E
:200A20007EFB7F00020A799001DBE0FF5410FF602B9001D2120165900018120171C31225FF
:200A4000F560067EF37F008030900009E4F0122C1F900020E4F07EFC7F00801D122C1F90CA
:200A60000009E4F09002E01201657C027D08AE2EAF2F1220A17EF87F0022071A07A807A889
:200A800009C30A27900008E0FFBF02197B04E4FCFDE4FEFF1204FD122C1F900009E4F07E70
:200AA000FA7F008009900009E4F07ED07F0022E0FEA3E0FF22E8F0A3E9F0A3EAF0A3EBF007
:200AC00022EEF0A3EFF022122280EF60047F018017C2AF5389F0438901D28CD2A9D2AF7E72
:200AE000007F64120460E4FF227424122272122141122CBE7424122CC7C31225F560047F7B
:200B0000018002E4FF22C007C0E0C0D053D0E7AF3EEF60031F8F3ED0D0D0E0D007328E2A10
:200B20008F2B1221BCAC06AD07AE2AAF2BEF6D7004EE6C60047F018002E4FF22E4FAFB8FF7
:200B4000828E83AE02AF0375F000EC4D6023ED60010CE0A330F00B2FFF50100EEE700C0F62
:200B600080092EFE50050FEF70010E05F0DDE3DCE122EB60010A8F828E83E0A3AF82AE83FD
:200B80008D828C83F0A3AD82AC83DBEADAE822758901759852E4F5C875CAAE75CBFF75C835
:200BA00030D2CAD28CE4F5909002E474C0F09002E574A8F09002E6E4F09002E77401F090CB
:200BC00002E7E0FF7E008E298F2A9002E6E0FF7E008E278F289002E5E0FF7E008E258F26E2
:200BE0009002E4E0FF7E008E238F247E177F0C7C011224D6120AC7EF600E7E167FFE7C0147
:200C00001218B075C10180FEE4FBAF03E4FEFC7D3212222974742FF58274023EF58374029A
:200C2000F0AF03E4FEFC7D321222297C027D82ED2FFDEC3EFC7E007F508C838D82120AC124
:200C40000BBB02C6120D17AC06AD077F00ECFEBF00F2BE90EFAF058F201217958E218F2292
:200C6000852183852282E0FFBF660B7C187DF2AF2012171F801F852183852282E0FFBF72F8
:200C80000B7C1B7DF9AF2012171F80097C117DC7AF2012171F1204738F20E5207003020CF6
:200CA00044120FD78E218F227C008C258D268E278F288520247523007E167FEF7C01122436
:200CC000D6740165207015AE21AF22AB07AA0678007E037F077C001226BA80B9740265209C
:200CE0007016AE21AF22AB07AA0678007E027FF67C001226BA020C95740365206003020C81
:200D000095AE21AF22AB07AA0678007E037F027C001226BA020C9512138E8E208F21E5209B
:200D200045216003020D7D900007E0FBF47003020D7DAF03E4FEFC7D061222297C027DEAA4
:200D4000ED2FFFEC3EFE850683850782E0FFBF032C7D01AF031217EFEE4F7021900007E0DA
:200D6000FFE4FE2FFF74F53EFE8E208F2190020EE4F0A3F090000774FFF0020DDDAE20AFF7
:200D800021BF0005BED4028003020DDDE4F522AF22E4FEFC7D061222297C027DEAED2FFFE1
:200DA000EC3EFE850683850782E0FD7F03C3ED9F40207D01AF221217EFEE4F7015AF22E403
:200DC000FE2FFF74F53EFE8E208F2190020EE4F0A3F00522740265226003020D8F7CF07DCF
:200DE00000AE20AF21C3EF9DEE9C5003020FD2AE20AF218F22AF22E4FEFC7D321222297CC0
:200E0000027D82ED2FFFEC3EFE8E838F82120AAFEF64507003EE6007AE20AF21020FD6AF02
:200E200022E4FEFC7D061222297C027DEAED2FFFEC3EFE8E238F24852383852482E0FF8F82
:200E400025AE20AF217F00BF0005BEF5028003020FB6E4F8F9E4FAFB020F0C7E027F10EFC4
:200E60002BFFEE3AFE850683850782E0FF8FF0E5256017AF25EF64017003020EE7AF25EFD2
:200E800064027003020EF2020F07744765F06003020F07EA4B6003020F07752501AF22E4D4
:200EA000FE2FF974903EF8AE23AF2474022FFDE43EFC7E167F0A8C838D82120AC1AE23AFD6
:200EC0002474042FFDE43EFC7E007FE58C838D82120AC1AE23AF240FEF70010E850683859B
:200EE00007827401F08020740A65F0701A7525028015740A65F07005752503800AAFF0EFD9
:200F0000640D60037525010BEB70010A90020E120AAFC3EB9FEA9E5003020E5BE849601151
:200F2000AF25852383852482EFF0AE00AF01020FD67D03AF25C3EF9D5003020FA77D01AF88
:200F4000221217EFEE4F6003020FA4752503AE23AF2474042FFFE43EFE8E838F82120AAF0E
:200F6000EE4F6028122C6E8E268F27AC26AD27AE23AF2412102FAA06AB07AC26AD27AF2222
:200F8000121D45AF22900007EFF0801B752504E4FDAF221217EFEE4F700DE4F525AF2212F8
:200FA0001E978003752504AF25852383852482EFF0E4FEFF80207CF87D00AE20AF21C3EF90
:200FC0009DEE9C400D852383852482E4F0E4FEFF8004AE20AF21229002E81206C19002E881
:200FE000120AAF850683850782E0FD642660077F20D3ED9F500280139002E8120AAF0FEF16
:2010000070010E9002E8120AC180D29002E8120AAF850683850782E4F09002E8120AAF0F1F
:20102000EF70010E9002E8120AC1AE02AF03228E288F298C088D09AE28AF2974022FFFE499
:201040003EFE8E838F82120AAF8E0C8F0DAE28AF2974042FFFE43EFE8E838F82120AAF8E42
:201060000E8F0FAE28AF290FEF70010E850683850782E0FF8F2AE4F50AF50B02118D850CD1
:2010800083850D82E493FF8FF0050DE50D7002050CE50F150F7002150EE52A700302116992
:2010A00074FF65F06003021169AE0CAF0D8E838F8212000EE4F8F9800509E97001088C83FD
:2010C0008D82AE83AF8274012FFDE43EFCE0FF70E87E007F64D3E99FE89E400478007964CE
:2010E000E50B29FBE50A38FA7E007F64D3EB9FEA9E401774FF250DF50D74FF350CF50C05BD
:201100000FE50F7002050E021196AE0CAF0D8E838F821200167402250DF50DE4350CF50C0E
:2011200074FE250FF50F74FF350EF50E80298A838B82AE83AF8274012FFBE43EFAE0FF8508
:201140000883850982EFF00509E50970020508050BE50B7002050AAC00AD0174FF2DF974B2
:20116000FF3CF8EC4D70C7801AAFF0850883850982EFF00509E50970020508050BE50B70A9
:2011800002050AAE0AAF0BEF64644E6009E50E450F600302107EAE28AF2974022FFBE43EB4
:2011A000FAAE0CAF0D8A838B82120AC1AE28AF2974042FFBE43EFAAE0EAF0F8A838B8212B6
:2011C0000AC1AE0AAF0B2201C401485454502F312E3020323030204F4B0D0A436F6E746570
:2011E0006E742D747970653A20746578742F68746D6C0D0A436F6E6E656374696F6E3A209A
:20120000636C6F73650D0A0D0A3C68746D6C3E3C686561643E3C7469746C653E486F6D652A
:201220003C2F7469746C653E3C2F686561643E0D0A3C626F6479206267636F6C6F723D233F
:2012400035303530353020746578743D2346464646303020766C696E6B3D233830464646C4
:2012600046206C696E6B3D2346463830464620616C696E6B3D234646383046463E0D0A3CDA
:20128000703E3C623E3C68323E3C693E456C656B746F7220465047412D57656273657276AE
:2012A0006572202D20486F6D65203C2F693E3C2F68323E3C2F623E3C2F703E0D0A3C7461A0
:2012C000626C6520626F726465723D303E0D0A3C74723E3C74643E3C6120687265663D2208
:2012E000666F726D2E68746D6C223E466F726D2064656D6F3A3C2F613E3C2F74643E3C7429
:20130000643E44796E616D696320666F726D733C2F74643E3C2F74723E0D0A3C74723E3C5C
:2013200074643E3C6120687265663D22687474703A5C5C7777772E656C656B746F722E6409
:2013400065223E456C656B746F7220486F6D65706167653C2F613E3A3C2F74643E3C7464D3
:201360003E5669736974207573213C2F74643E3C2F74723E0D0A3C2F7461626C653E0D0A08
:201380003C2F626F64793E3C2F68746D6C3E90D007E0FF5410FF6009122280754200754363
:2013A0000090D007E0FF5403FF600D90D400E4F0A3F090D0077403F090D007E0FF540CFFE6
:2013C0007003021582E5424543701612261B8E428F43E5424543600302145EE4FEFF021658
:2013E00009E4FB802CAE42AF4374082FFDE43EFC8C428D437ED47FA0ED6F7004EC6E600216
:20140000800F7ED47F0074082FFFE43EFE8E428F43AD03AB050B7F04C3E5059507501EAEAD
:2014200042AF4374022FFFE43EFE8E838F82120AAF7F00530680EE4F60030213E5AE42AF36
:201440004374022FFFE43EFE8E838F82120AAF7F00530680EE4F6006E4FEFF021609122465
:20146000AE1221BC1221417C007D067E027F0812265B1221BC8E208F217C057DDCAE20AF1E
:2014800021D3EF9DEE9C50297EAA7FAA120B1EEF6006E4FEFF0216097C03E4FDFEFF120A6D
:2014A000E9EF6006E4FEFF0216091221BC8E208F21E4F522F523AE20AF21BF060CBE08094E
:2014C0001229258E228F238011AE20AF21BF000ABE08071203898E228F23E4FCFDAE42AF09
:2014E000438E838F821204EB74022543F509E43542F508AE08AF098E838F82120AAF7F0078
:20150000530620430680EFFDEE4440FCAE08AF098E838F821204EBAA42AB43AE42AF43746E
:20152000082FFDE43EFC8C428D437ED47F0074282FFFE43EFEED6F7004EC6E6002800F7E67
:20154000D47F0074082FFFE43EFE8E428F43AE42AF43EB6F7004EA6E601BAE42AF437402F1
:201560002FFFE43EFE8E838F82120AAF7F00530680EE4F600690D007740CF0AE22AF2302BA
:201580001609E53E6003021606053D753E0F752002752174E4F522AE20AF210FEF70010ECD
:2015A000850683850782E0FF603D7A007B327C007D08AE20AF21120B721200268E238F24A2
:2015C0007A007B32AC20AD217E007F08120B72E52345246012AF22AD077C00AE23AF24ED41
:2015E0002FFFEC3EFE8022052274322521F521E43520F5207D02AF22C3EF9D5003021597DC
:201600007ED47F008003E4FEFF22485454502F312E3020323030204F4B0D0A436F6E7465F9
:201620006E742D547970653A20746578742F68746D6C0D0A436F6E6E656374696F6E3A2075
:20164000636C6F73650D0A0D0A3C68746D6C3E3C686561643E3C7469746C653E456C656BEE
:20166000746F722046504741205765627365727665723C2F7469746C653E3C2F686561643A
:201680003E3C626F647920746578743D222330303030464622206267636F6C6F723D2223C3
:2016A00046464646383022206C696E6B3D2223464630303030223E456C656B746F72204650
:2016C00050474120576562736572766572202D2050616765206E6F7420666F756E643C2F5B
:2016E000626F64793E3C2F68746D6C3E0D0A00417267204125753A20272573270A003C4EA0
:201700004554204641494C5552453E0049503A202025752E25752E25752E25750D0A008C22
:20172000088D09AD07E4FCFE7F061222297A027BEAEB2FF9EA3EF8AE08AF098E838F8212E1
:201740000016740429FFE438FE8E838F82120003AE08AF0974022FFFE43EFEAC06AD077476
:20176000012DFFE43CFE8E088F09850483850582E493FB740129FFE438FE85068385078293
:20178000EBF0740229FBE438FAAE08AF098A838B82120AC1227C027D15E4FEFF9002E812BA
:2017A0000AC1900273E4F0850483850582E0FBBB3F0F74012DFFE43CFE9002E8120AC180F3
:2017C0000E7F20D3EB9F40070DED70010C80D8850483850582E4F07E027F1522784090007F
:2017E0001E7A04EA6008E493A3F6081A80F522A905AD07E4FCFE7F321222297A027B74EB8E
:201800002FFDEA3EFC850483850582E0FFBF021374012DFFE43CFE850683850782E0FF648F
:201820000260077EF07F0002186D900006E0FF70067ED27F008036E96018741A2DFFE43C20
:20184000FE8E838F82120AAFEE4F601E7EF47F00801B742A2DFFE43CFE8E838F82120AAF81
:20186000EE4F60067EF47F008003E4FEFF2278037914900008E849600AE4F0A3E91970F535
:201880001880F22278007908902D017A007B00E849601CE493A3AC83AD828A838B82F0A31E
:2018A000AA83AB828C838D82E91970E31880E0227420122272802685200885210985220AD4
:2018C00085230BE4F8F9FA7B01122CF8122AF57420122272122CF81222471224917420124B
:2018E0002CC7122247EF70CF7F0A1224917E007F0122030401485454502F312E3020323054
:2019000030204F4B0D0A436F6E74656E742D747970653A20746578742F68746D6C0D0A439F
:201920006F6E6E656374696F6E3A20636C6F73650D0A0D0A3C68746D6C3E3C686561643E01
:201940003C7469746C653E466F726D3C2F7469746C653E3C2F686561643E0D0A3C626F64C9
:2019600079206267636F6C6F723D2335303530353020746578743D234646464630303E3C20
:20198000703E3C623E3C68323E3C693E456C656B746F7220465047412D57656273657276A7
:2019A0006572202D20466F726D2044656D6F3C2F693E3C2F68323E3C2F623E3C2F703E0D24
:2019C0000A3C666F726D20616374696F6E3D227265706C792E68746D6C22206D6574686FA2
:2019E000643D22676574223E0D0A3C7461626C653E0D0A3C74723E3C74643E596F75722053
:201A00005375726E616D653A3C2F74643E3C746420636F6C7370616E3D343E3C696E707565
:201A20007420747970653D74657874206E616D653D4131206D61786C656E6774683D323057
:201A40003E3C2F74643E3C2F74723E0D0A3C74723E3C74643E4C6F636174696F6E3A3C2F91
:201A600074643E3C746420636F6C7370616E3D343E3C73656C656374206E616D653D413250
:201A80003E0D0A3C6F7074696F6E3E417369610D0A3C6F7074696F6E3E4175737472616C5A
:201AA00069610D0A3C6F7074696F6E3E4575726F70650D0A3C6F7074696F6E3E4E2E2D41AE
:201AC0006D65726963610D0A3C6F7074696F6E3E532E2D416D65726963610D0A3C2F7365B1
:201AE0006C6563743E203C2F74643E3C2F74723E0D0A3C74723E3C74643E416464722E3A24
:201B00003C2F74643E0D0A3C74643E4D722E3C2F7464203E3C74643E3C696E7075742074FB
:201B20007970653D726164696F206E616D653D41332076616C75653D4D7220636865636B42
:201B400065643E3C2F74643E0D0A3C74643E4D72732E3C2F74643E3C74643E3C696E707569
:201B60007420747970653D726164696F206E616D653D41332076616C75653D4D72733E3C2B
:201B80002F74643E3C2F74723E0D0A3C74723E3C74643E53656E643A3C2F74643E0D0A3C10
:201BA000746420636F6C7370616E3D343E3C696E70757420747970653D7375626D6974204F
:201BC00076616C75653D53656E64206E616D653D41393E3C2F74643E0D0A3C2F7461626CC5
:201BE000653E3C2F666F726D3E0D0A3C2F626F64793E3C2F68746D6C3E014901485454508E
:201C00002F312E3020323030204F4B0D0A436F6E74656E742D747970653A20746578742F6B
:201C200068746D6C0D0A436F6E6E656374696F6E3A20636C6F73650D0A0D0A3C68746D6C39
:201C40003E3C686561643E3C7469746C653E5265706C793C2F7469746C653E3C2F6865612E
:201C6000643E0D0A3C626F6479206267636F6C6F723D2335303530353020746578743D23E5
:201C800046464646303020766C696E6B3D23383046464646206C696E6B3D23464638304640
:201CA0004620616C696E6B3D234646383046463E0D0A3C703E3C623E3C68323E3C693E4578
:201CC0006C656B746F7220465047412D576562736572766572202D20466F726D2044656D1C
:201CE0006F3C2F693E3C2F68323E3C2F623E3C2F703E0D0A48656C6C6F20FF03022E20FF80
:201D000003072066726F6D20FF02F6213C62723E3C62723E0D0A3C6120687265663D2268D1
:201D20006F6D652E68746D6C223E486F6D652E2E2E3C2F613E0D0A3C2F626F64793E3C2F29
:201D400068746D6C3E8A268B278C288D29E4FEFC7D321222297C027D74ED2FFFEC3EFE8E9A
:201D60002A8F2B7A007B327C007D08AE2AAF2B120B72900008E0FFBF0209900009E0FF64F9
:201D80000260077EF07F00021E96E5264527700DAE28AF29122CD5E4FEFF021E9690003229
:201DA000120AAFEE4F7031AE28AF29900038120AC1AE26AF27900032120AC1AE26AF27AB89
:201DC00007AA06E4F9F890001C120171122AF59000341204F1021E5290002A120AAFEE4F17
:201DE0007030AE28AF29900030120AC1AE26AF2790002A120AC1AE26AF27AB07AA06E4F9CE
:201E0000F890001C120171122AF590002C1204F18040900022120AAFEE4F7030AE28AF29DE
:201E2000900028120AC1AE26AF27900022120AC1AE26AF27AB07AA06E4F9F890001C120134
:201E400071122AF59000241204F180067EF47F0080447B18AC26AD27AE28AF291204FDAE42
:201E600026AF27AB07AA06E4F9F890001C120171122AF590001C1204F1900020E4F0900007
:201E8000217406F07A007B32AC2AAD2B7E007F08120B72E4FEFF22E4FEFC7D321222297CE5
:201EA000027D74ED2FFFEC3EFE8E268F277A007B327C007D08AE26AF27120B72900008E0A9
:201EC000FFBF0207900009E0FF70077EF07F00021F25900032120AAFEE4F60067EF47F00F8
:201EE00080437B19E4FCFDE4FEFF1204FDE4F8F9FA7B0190001C120171122AF590001C1250
:201F000004F19000097403F0900020E4F09000217406F07A007B32AC26AD277E007F081249
:201F20000B72E4FEFF228E2C8F2D742E12260EE4F532F533742E122CC71222478F34053175
:201F4000E531700E0530E5307008052FE52F7002052EE5347007AE32AF330220A07425652C
:201F600034600302208A742E122CC71222478F340531E531700E0530E5307008052FE52F65
:201F80007002052EAF34EF64736028AF34EF6475600302208A052B052BAF2BAB0778027CCF
:201FA000FF7DFF7EFF7FFE122AF51221948E358F3680547404252BF52BAF2BAB0778027CEE
:201FC000FF7DFF7EFF7FFC122AF512215874371222727437122CC7122247053AE53A700E7A
:201FE0000539E53970080538E53870020537EF7003021F34852C83852D8212280A0533E585
:20200000337002053280CB753700753801800F7E007F0AAC37AD381222298E378F38AC3715
:20202000AD38AE35AF361225787C007D09D3EF9DEE9C50DB804BAC37AD38AE35AF3612259C
:2020400078AB07AF037E00AC37AD38122229AC35AD36C3ED9FFFEC9EFE8E358F3674302B10
:20206000FF852C83852D8212280A0533E533700205327C007D0AAE37AF381225788E378FEA
:2020800038E537453870AF021F34AF34852C83852D8212280A0533E53370020532021F341E
:2020A000228C2E8D2F1226A4AA06AB079001D01206C79001CE120AAF9001D0120AC1900111
:2020C000CE1204EB9001DCE4F0A3F0E4F9F89001D2120171122AF512291C9001DBE0FF547A
:2020E00003FF6014050BE50B700E050AE50A70080509E509700205089001D612017190017F
:20210000D21204F1122CF89001D61204F19001DB7414F0850C30850D31850E32850F33AAA4
:202120002EAB2FE4FCFDE4FEFF12058722EC70078F828E83EBF022B40206C88F00A603C813
:2021400022AE3BAF3C8E838F821201717404253CF53CE4353BF53B22EC70108F828E83E0C5
:20216000FCA3E0FDA3E0FEA3E0FF22D5E0138F828E8393FC740193FD740293FE740393FF30
:2021800022D5E00FC88F008604088605088606088607C822EC700A8F828E83E0FEA3E0FFEA
:2021A00022D5E00B8F828E8393FE740193FF22D5E009C88F008606088607C822AE3BAF3C6D
:2021C0008E838F82120AAF7402253CF53CE4353BF53B22AA40AB418A838B821204F17404F5
:2021E0002541F541E43540F54022AC40AD418C838D82120AC174022541F541E43540F5401E
:20220000227ED47F0074022FFFE43EFE8E088F098E838F82120AAFEFFDEE44C8FCAE08AFA5
:20222000098E838F821204EB22C000C001ED8FF0A4F9A8F0ED8EF0A428F8EC8FF0A428FECA
:20224000AF01D001D00022EC70078F828E83E0FF22D5E0078F828E8393FF22D5E006C88FE1
:20226000008607C822EF5BFFEE5AFEED59FDEC58FC22C8A60408A60508A60608A607C8223B
:2022800090D000E4F0A3F0A37408F0A3E4F090D0001201715306F7E4FDFC90D0001204F179
:2022A00090D0237401F090D018E4F0A37440F0A37406F0A3E4F090D00F7412F090D0137453
:2022C0000CF090D0177412F090D01CE4F0A3740FF0A3E4F0A3743FF090D027E4F07508D446
:2022E000E4F509F9AD017C007F03AE04ED8FF005F08005C333CE33CED5F0F8FFE5092FFB26
:20230000E5083EFAE4FCFD7E587F008A838B821204F1AD017C007F03AE04ED8FF005F08006
:2023200005C333CE33CED5F0F8FFE5092FFFE5083EFE74042FFBE43EFAAE04AF057C067DAF
:2023400000122229E42FFF74183EFEE4FDFC8A838B821204F109B9010280030222E4AE0842
:20236000AF098E838F82120171430620AA08AB098A838B821204F17ED47F0074082FFFE4B0
:202380003EFE8E088F09E4F9AD017C007F03AE04ED8FF005F08005C333CE33CED5F0F8FF31
:2023A000E5092FFBE5083EFA7D10E4FEFF8DF005F08005C333CE33CED5F0F8FFFF43068032
:2023C000430640E4FDFC8A838B821204F1AD017C007F03AE04ED8FF005F08005C333CE333B
:2023E000CED5F0F8FFE5092FFFE5083EFE74042FFBE43EFAAE04AF057C067D00122229E4AA
:20240000FDFC8A838B821204F109B90402800302238874182509F509E43508F508AE08AF6F
:20242000098E838F82120171430620AA08AB098A838B821204F17E007F001224E47CFF7DEE
:20244000FF7EFF7FFF90D007EFF090D00B747FF090D0001201714307434306A090D0001222
:2024600004F1E4FF22309911C0E074007006D0E0C2998005D0E0020020309814C0E0E599A2
:2024800064F07004740070EC64F0F53FD0E0C29832C2ACA299EF640A7008C29975990D30BC
:2024A00099FDC2998F993099FD9299D2AC22AE42AF4374062FFFE43EFE8E838F82120AAFDB
:2024C0004306E08E3B8F3C22C3EF9BFFEE9AFEED99FDEC98FC22752B23122CBE7E247F91B5
:2024E000121F2622A806A907740129FFE438FE850683850782E0FFAB077A00850083850199
:2025000082E0FFAD077C007F08AE04ED8FF005F08005C333CE33CED5F0F8FF4BFFEE4AFE0A
:20252000E4FDFC90D0441204F1740229FFE438FE7C0012215890D0401204F12290D4001215
:202540000AC17CD47D0074022DFBE43CFA7C787D008A838B821204EB7CD47D0074042DFD30
:20256000E43CFCE4F8F97A187B008C838D82120AB57540F875410022C000C001C002C003E3
:20258000C083C082AA04AB05A806A90775F000EA4B7006E4FEFF0225E805F0EA54807017C0
:2025A000EB2BF582EA33F583D3E58299E583985006AA83AB8280E2E4F583F582E582258233
:2025C000F582E58333F583C3E99BE89A4008C3E99BF9E89AF8A3EAC313FAEB13FBD5F0DCAF
:2025E000AE83AF82AC00AD01D082D083D003D002D001D00022EF9BF5F0EE9A42F0ED994221
:20260000F0EC64806300809863008045F022C8F608A60108A60208A603C8227ED47F007448
:20262000082FFDE43EFCE4FB74022DFFE43CFE8E838F82120AAF7F00530680EE4F600F0BAD
:2026400074082DFDE43CFC7F04C3EB9F40DABB0405E4FEFF8004AE04AF0522A804A905AC17
:2026600006AD07802E8C088D09AA08AB0974012BFDE43AFCAE3BAF3C74012FFBE43EFA8A92
:202680003B8B3C850683850782E0FB850883850982EBF0AE00AF0174FF2FF974FF3EF8EEB6
:2026A0004F70C222880C890D8A0E8B0F22EF6BFFEE6AFEED69FDEC68FC22742312260E7434
:2026C0002712227285272B85282C85292D852A2E852B0C852C0D852D0E852E0FE4F8F9FAFA
:2026E0007B01122CB5122AF5742B12227285230885240985250A85260BE4F8F9FA7B0112CC
:202700002CF8122AF57423122272122CF8122247A907AB01122CB512212DE970B37427120E
:202720002CC722A804A905AC06AD07802C85400885410974012509F541E43508F540AE049B
:20274000AF0574012FFDE43EFC850683850782E0FB850883850982EBF0AE00AF0174FF2F14
:20276000F974FF3EF8EE4F70C42274231222727E007F2A12253C7CFF7DFF7EFF7FFF122128
:20278000D37EFF7FFF1221EA7C007D067E007F001227237E087F061221EA7C007D017E084E
:2027A0007F001221D37C067D047E007F011221D37C007D067E007F001227239002E41201AC
:2027C000711221D37CFF7DFF7EFF7FFF1221D37EFF7FFF1221EA9002E41201657423122CAF
:2027E000C71226AD9002DC120165122265EC4D4E4F600B9002D81201711221D3800874235A
:20280000122CC71221D312220122C082C083228E248F251221BC8E268F271221BC8E288FBC
:2028200029AE24AF25120B1EEF60077EE17F0002291B1221BC752A02752B74E4F52CF52D49
:20284000852A83852B82E0FFBF010280030228F2AE2AAF2B740E2FFFE43EFE8E838F82121E
:2028600006C7AE28AF29ED6F7004EC6E60030228F2AE2AAF2B740C2FFDE43EFCAE26AF270E
:202880008C838D82120AC1AE2AAF2B74082FFBE43EFA9002E01201718A838B821204F17A38
:2028A000007B06AE2AAF2B74022FFDE43EFC7E027F08120B7274F82525F52F74FF3524F5F4
:2028C0002E7C007D64AE2EAF2FD3EF9DEE9C5047AC2EAD2F7E027F1012265BAE2EAF2F9091
:2028E000020E120AC1AE2CAF2DE42FFF74E23EFE8029052DE52D7002052C7432252BF52BEB
:20290000E4352AF52A7C007D02AE2CAF2DC3EF9DEE9C50030228407EE07F00228C088D09E5
:202920008E0A8F0B227C007D017E087F00120AE9EF60077EA27F00022AF47E067F04120B06
:202940001EEF60077EA27F00022AF41221BC8E248F257C007D147E017FCE12265B7C007D8A
:2029600002AE24AF25D3EF9DEE9C40077EA37F00022AF4AE24AF25EF64014E60030229FCED
:202980009002E41201659001DE120171C31225F560077EA47F00022AF47E007F2A12253CA5
:2029A0007C007D067E027F081227237C007D067E007F001227237E087F061221EA7C007D3C
:2029C000017E087F001221D37C067D047E007F021221D37C007D067E007F001227239002F9
:2029E000E41201711221D37C007D0A7E017FCE1227231222017EA07F00022AF4752402753C
:202A00002574E4F526852483852582E0FF7003022AD7AE24AF250FEF70010E8506838507B4
:202A200082E0FFBF06028003022AD7AE24AF2574082FFFE43EFE8E838F8212017112291C7B
:202A40009001D4120165122CF8C31225F560339002E4120165122CF81226AD9002DC120157
:202A600065122265EC4D4E4F7003022AD79002D81201659001D4120171C31225F5600302ED
:202A80002AD77A007B06AE24AF2574022FFDE43EFC7E017FCE120B72AE24AF250FEF700164
:202AA0000E8506838507827407F0AE24AF2574182FFFE43EFE850683850782E4F0AE24AF90
:202AC0002574192FFFE43EFE8506838507827401F07EA57F00801D052674322525F525E41D
:202AE0003524F5247D02AF26C3EF9D5003022A057EA17F0022EF2BFFEE3AFEED39FDEC38F7
:202B0000FC228E298F2A7C007D14AE29AF2AD3EF9DEE9C4006752900752A14AC29AD2A7EC0
:202B2000017FCE12265B9001CEE0FF70077EB07F00022C1E9001CEE0FFBF08028003022C4E
:202B40001A9001CEE4F09001D0E4F0A3F0AC29AD2A7E017FCE120B3CEFF4FFEEF4FE90013C
:202B6000D0120AC19001EE7445F0A3E4F0AE29AF2A74142FFFE43EFE9001F0120AC1900194
:202B8000F2E4F0A3F09001F47440F0A3E4F09001F67464F09001F77401F09001F8E4F0A300
:202BA000F09002E41201719001FA1204F19002E01201719001FE1204F17C007D147E017F02
:202BC000EE120B3CEFF4FFEEF4FE9001F8120AC1AE29AF2A74222FFFE43EFE12253C7C0003
:202BE0007D067E027F081227237C007D067E007F001227237E087F001221EA7C007D147EEA
:202C0000017FEE122723AC29AD2A7E017FCE1227231222017EB17F0080047EB27F0022904E
:202C20000032120AAFEE4F6010900032E4F0A3F0900038120AAF122CD590002A120AAFEEA8
:202C40004F601090002AE4F0A3F0900030120AAF122CD5900022120AAFEE4F60109000221A
:202C6000E4F0A3F0900028120AAF122CD5227C007D3A900006E0FF6038E4FB850483850580
:202C800082E0FF701D8504838505827401F0900006E0FF1F900006EFF074012DFFE43CFE01
:202CA00080120B74652DFDE43CFC7F04C3EB9F40CAE4FEFF22AC0CAD0DAE0EAF0F22A804C1
:202CC000A905AA06AB0722C88604088605088606088607C822EF1F70011E85068385078211
:202CE000E0FD6013850683850782E4F0900006E0FD0D900006EDF022AC08AD09AE0AAF0BA3
:0D2D00002200069801000004FF0000000002
:00000001FF
