:060000000200060211A738
:07005F00751001E4F511F535
:0300660012F5137D
:0300780002007B08
:05007B001201C180FE2E
:0E008000AA82AB83ACF0121519FDA31215195C
:0C008E00FEA3121519FFA3121519F87536
:06009A00306D75314E755A
:0A00A00032C67533418D828E838FC6
:0E00AA00F0E8C002C003C00412145CAD82AEC8
:0E00B80083AFF0F8D004D003D00274392DFDD0
:0E00C60074303EFEE43FFFE438F88A828B83FC
:0E00D4008CF0ED121426A3EE121426A3EF12E8
:0E00E2001426A3E812142653007F8D828E830D
:0400F0008FF0E82283
:0C00F400AA82AB83ACF0121519F50CA326
:07010000121519F50DA31201
:060107001519F50EA3120C
:05010D001519F50F902B
:0E011200000C75F040C002C003C00412008053
:0E012000AD82AE83AFF0F8D004D003D0028AD7
:0E012E00828B838CF0ED121426A3EE121426A1
:0E013C00A3EF121426A3E81214268A828B83E6
:0D014A008CF0121519FAA3121519FBA3125F
:0E0157001519FCA3121519FD8A828B838CF0FA
:010165002277
:0901660090001075F040020080C9
:08016F0085821085831185F0E3
:0401770012F5132248
:08017B00AF82AE83EF60010EBC
:0301830090F3CB2B
:0D018600A3E583458270F9DFF4DEF222224A
:0E01930090AA00740EF0120C797A407B807CEA
:0501A100007530397506
:0301A6003115759B
:0701A9003280753380E4F59C
:0B01B000348A828B838CF01213CE90F7
:0601BB00AA007406F02208
:0E01C10075890175985275C80075CAAE75CB68
:0E01CF00FF75C830D2CAD28C120CDA1211821F
:0E01DD00D2AF12019390AA017404F090AA020E
:0E01EB00E4F0AA8C8A037A00AC8A7D00EC4214
:0E01F90002ED4203630235630312EB3395E01F
:0E020700FCFD8A828B838CF012016F75820ED3
:0A0215001210657582041210737553
:09021F00260175821E120E3190B9
:09022800166575F08012103A759C
:09023100260275821E120E3190A6
:0C023A00168375F08012103A75820912CC
:0E024600106590AA06E024ECFA90AA05E0FBF1
:0C02540014F5268A82120E317582031206
:0902600010739016A175F08012D4
:0C026900103A75820012107375820712A3
:09027500106575260575820A1258
:09027E000E319016B575F08012E6
:09028700103A75260675820A1270
:090290000E319016C375F08012C6
:09029900103A75260775820A125D
:0902A2000E319016CD75F08012AA
:0902AB00103A75260875820A124A
:0902B4000E319016DD75F0801288
:0902BD00103A75260A75820A1236
:0902C6000E319016F975F080125A
:0402CF00103A752844
:0302D30018752972
:0802D6001775270C75820A124E
:0602DE000FE71203D875C2
:0202E4000B010C
:0C02E600E50A60091206BE7A817B0080E8
:0102F2000902
:0902F30012129AAC828C027B000D
:0E02FC00C3EA9481EB64809480500302039C5B
:08030A00BA8105BB0002801856
:08031200BA8205BB0002801D48
:08031A00BA8305BB0002803329
:08032200BA8473BB0070804730
:0D032A00C002C0031203D8D003D0028065CA
:020337007C0147
:0E033900C002C003C004120697D004D003D047
:0C03470002E50BB4014F8C051CED70E6C4
:020353008047E1
:04035500752828756A
:03035900291775EC
:0C035C00270C75820AC002C003120FE7D4
:09036800D003D002750B00802BBC
:04037100752818755E
:03037500291775D0
:0C037800270C75820AC002C003120FE7B8
:0C038400D003D002750B01C002C00312B0
:08039000097FD003D0028004B4
:040398007A007B006C
:0E039C00C3EA9431EB6480948050030202E6C1
:0E03AA00C374379A74808BF063F08095F05026
:0403B800030202E654
:0C03BC00EA24CFF582120613E50A600364
:0303C8000202E648
:0703CB00E50B70030202E6DE
:0603D20012097F0202E6A1
:0203D8007A00A9
:0503DA00BA07028009D2
:0903DF00EA243BF876000A80F2E2
:0203E8007A0198
:0503EA00BA4602801B71
:0A03EF00EA2400F582E43400F583EF
:0A03F900E4F0EA2446F582E4340043
:07040300F583E4F00A80E03C
:07040A00750800750A00757A
:0A04110009007582011210737A00D1
:05041B00BA0602801F7B
:020420007B005F
:05042200BB070280157C
:0A0427008A147515FF8B82C002C015
:0B0431000312048ED003D0020B80E603
:03043C000A80DC57
:0C043F0075820B12106575261A75820C70
:0A044B00120E3190173875F0801280
:04045500103A7A0ED1
:0C045900EA24E5402F8A2675820BC002C1
:0E046500120E31D002758220C002120EF9D0A4
:0C047300028A26758228C002120E31D0C9
:0E047F0002758220C002120EF9D0020A80CC53
:01048D00224C
:0D048E00AA82758201C002121073D002E52F
:06049B0015B4FF02800B06
:0A04A100E5156013E515B401248091
:0104AB001838
:0C04AC00758208C002121065D002801694
:0C04B80075820AC002121065D002800A92
:0A04C40075820CC002121065D00210
:0D04CE00EA2A25E0FA740C2AFB7406C39597
:0A04DB001425E0FC740C2CFD8D26A6
:0E04E5008B82C002C003C004C005120E31D0CD
:0E04F30005D004D003D002758204C002C003FD
:0E050100C004C005120E82D005D004D003D075
:0C050F0002740D2CFC8C268B82C002C0F4
:0E051B0004C005120E31D005D004D002758246
:0E05290005C002C004C005120E82D005D00429
:0C053700D002740D2AFB8D268B82C002BE
:0E054300C003C004C005120E31D005D004D094
:0E05510003D002758206C002C003C004C005BC
:0C055F00120E82D005D004D003D0028C14
:0C056B00268B82C002C004C005120E31B5
:0E057700D005D004D002758207C002C004C0B7
:0E05850005120E82D005D004D002740E2AFB9F
:0C0593008D268B82C002C003C004C0058E
:0E059F00120E31D005D004D003D002758208B0
:0E05AD00C002C003C004C005120E82D005D0EB
:0C05BB0004D003D0028C268B82C002C04A
:0E05C70004C005120E31D005D004D00275829A
:0E05D50009C002C004C005120E82D005D00479
:0C05E300D002740F2AFA8D268A82C00212
:0E05EF00C004120E31D004D00275820AC00280
:0C05FD00C004120E82D004D0028C268AAA
:0A06090082120E3175820B020E8280
:07061300AA82E50A60012242
:09061A00EA243BF88603BB06004C
:0E06230050717C007406C39BFBE49CFC7D05BB
:040631008508158D96
:0C063500148A82C002C003C004C0051279
:0E064100048ED005D004D003D0021BBBFF01F5
:01064F001C8E
:0E065000EB4C6033900046C002C003C004C0F3
:0D065E000512017BD005D004D003D0028D21
:0A066B00147515FF8A82C002C00357
:0E067500C004C00512048ED005D004D003D0FE
:04068300021D80AA2A
:0D068700900046C00212017BD0028A820260
:0206940007A2BB
:010696002241
:08069700E50960221208A1E54B
:07069F0009248CF582E4340C
:0B06A60000F583E0FA7B008A04EA24E0
:0506B1003BF886147502
:0706B60015FF8C8202048E87
:0106BD00221A
:0606BE007A007B007C00C5
:0506C400BC04028031BE
:0C06C900EC90166193FDEC75F02AA4245F
:0806D500B9FEE43415FF7800C2
:0506DD00B82A0280159F
:0C06E200E82EF582E43FF583E493F9B5BF
:0606EE000A048D038802DE
:0306F4000880E695
:0306F7000C80CAAA
:0206FA007CFF83
:0406FC008A057E00ED
:05070000BE0402802E82
:0E07050075F007ED8485F08275F007ED84F540
:0A071300148C15C002C003C004C01E
:0E071D0005C00612048ED006D005D004D0030D
:08072B00D002EB2DFD0E80CD84
:0B073300BCFF0CE50870047C01800690
:04073E007C008002B9
:020742007CFF3A
:020744007D0A2C
:0E074600900032C002C003C004C00512017B47
:0E075400D005D004D003D002C002C003C00400
:0E076200C0051212B3D005D004D003D002405F
:0307700002DDD3D4
:0E0773007D00C002C003C004C0051212B3D046
:0E07810005D004D003D0025011C002C003C046
:0C078F000412129AAD82D004D003D002F4
:04079B00BD810122F9
:03079F000206FC53
:0C07A200E582FA243BF88603BB06012226
:0607AE00AC090509EC2472
:0A07B4008CF582E43400F583EAF0CE
:0A07BE00EB75F007A42AF539753039
:0107C8000030
:0807C900E530B40403020891BD
:0407D100853931E550
:0907D5003075F02AA4FE24B9F5E8
:0507DE0033E43415F5C1
:0307E30034853327
:0307E60035853422
:0407E90036E530249D
:0507ED0061F537E43462
:0407F20016F538754B
:0207F6003200CF
:0807F800E532B4040302088C91
:08080000E5312533F582E435F2
:0C08080034F583E493FF547F6055C0007A
:0A081400E50875F046A42400FFE497
:09081E003400FCEE24B9FDE434C1
:0A08270015FAE5312DF582E43AF5EB
:0E08310083E493FA747F5A2FFFE43CFC8F821D
:0E083F008C83E004FA8F828C83F0E4BA04010B
:01084D0004A6
:0A084E00D0006015EE24B9FAE4347E
:0A08580015FCE5312AF582E43CF5B9
:0508620083E493F50A98
:08086700E5312535F582E43589
:0A086F0036F583E493FA20E71485C0
:090879003782853883E493FAE527
:0608820031C39AF53105B7
:04088800320207F839
:05088C0005300207C960
:0A08910074012BF6E50870047508E9
:02089B00012238
:04089D0075080022B8
:0508A100E509700122D1
:0808A600750A00E508700575F4
:0408AE0008018003BA
:0308B200750800C6
:0508B5001509E509240E
:0A08BA008CF582E43400F583E0F5CC
:0A08C40033243BF88603EB14F675AD
:0208CE003000F8
:0608D000E530B404012232
:0A08D6008604EC75F007A42533F545
:0908E00031E53075F02AA4FD2475
:0708E900B9FEE43415FF8E97
:0408F000348F35E527
:0408F400302461F556
:0508F80036E43416F5A2
:0408FD003775320019
:07090100E532B4040280722C
:0C090800E5312EF582E43FF583E493FA1C
:0C091400547F603EC000E50875F046A46A
:060920002400F538E43468
:0509260000F539ED248D
:07092B00B9FCE43415FAE504
:0C093200312CF582E43AF583E493FA746A
:0A093E007F5A2538FAE43539FB8AA8
:0E094800828B83E0FC1C8A828B83ECF0D00053
:08095600E5312534F582E4359A
:0A095E0035F583E493FA20E71385D2
:090968003682853783E493FAE539
:0609710031C39AF53105C7
:0309770032808744
:05097A0005300208D069
:04097F00752856750C
:03098300291775BC
:09098600271D758214120FE79081
:0D098F0000C47480F0A374FFF07A007B00B8
:06099C00BB0703020A5F25
:0C09A200EB243BF88604BC0616EB2BFC93
:0A09AE0024B6F582E43400F58374EA
:0909B80080F0A374FFF0020A5B59
:0E09C1008B82C002C0031207A2D003D002E551
:0A09CF000A6014EB2BFC24B6F5823D
:0C09D900E43400F583747FF0A3E4F080A8
:0109E50038D9
:0A09E600EB2B24B6FCE43400FDC046
:0E09F00002C003C004C0057480C0E074FFC0E4
:0E09FE00E0758204120A73AE82AF8315811574
:0E0A0C0081D005D004D003D0028C828D83EE01
:040A1A00F0A3EFF066
:0A0A1E00EB2BFC24B6F582E4340053
:0E0A2800F583E0FCA3E0FD9000C4E0FEA3E037
:0E0A3600FFC3EE9CEF64808DF063F08095F0BE
:0C0A4400500A9000C4ECF0A3EDF08B020F
:0B0A5000C002C0031208A1D003D002B6
:040A5B000B02099CE5
:070A5F008A821206137528BC
:030A66006375298C
:080A69001775271D75821402A8
:020A71000FE78D
:0A0A7300C016858116C0827B817CCD
:0B0A7D00FFA81608E67006120B6402CA
:020A88000B5E03
:080A8A00A81608E614FD7E0029
:060A9200BE0703020B4A3F
:0C0A9800EE243BF88607BF0603020B2A81
:0E0AA4008E82C003C004C005C0061207A2D097
:0C0AB20006D005D004D003E50A600EA8B1
:0C0ABE00160886077A00747A2FFBE43AD1
:010ACA00FC2F
:0E0ACB00C003C004C005C006C003C0048D8275
:0E0AD900120A73AA82AF8315811581D006D050
:0E0AE70005D004D003C3EB9AEC64808FF0635B
:0A0AF500F08095F050048A038F048E
:0E0AFF00C003C004C005C0061208A1D006D076
:0C0B0D0005D004D003A8160886027F0063
:0E0B1900747A2AFAE43FFFEBB50206ECB5074A
:030B270002802029
:0C0B2A00C3E49BFAE49CFFE51624FCF8F1
:0E0B3600C3E69A08E664808FF063F08095F0C5
:060B440050040E020A92AB
:0B0B4A00BB8108BCFF05900000800983
:090B5500C3E49BF582E49CF583E6
:060B5E00851681D016226D
:060B64007A007B007C0119
:060B6A00BC4603020BFB78
:0A0B7000EC2446FDE43400FE8D8203
:0B0B7A008E83E06012EC2400FDE434E8
:0C0B850000FE8D828E83E06003020BF7FF
:0A0B9100EC2446F582E43400F583FD
:070B9B00E0FDBD0102800A2C
:050BA200BD0202800C01
:050BA700BD03198010E0
:070BAC000ABA00130B8010D0
:090BB30074062AFAE43BFB8007FA
:070BBC00740D2AFAE43BFB73
:0A0BC300EC2400F582E43400F58311
:070BCD00E0FDBD0102800AFA
:050BD400BD0202800CCF
:050BD900BD031B8011AB
:050BDE001ABAFF011B23
:020BE30080127E
:0A0BE500EA24FAFAEB34FFFB800863
:080BEF00EA24F3FAEB34FFFBEA
:040BF7000C020B6A77
:0E0BFB00C002C003120166AC82AD83AEF0FFF3
:0A0C0900D003D002753010E4F5317D
:0A0C1300F532F5338C828D838EF0EC
:0E0C1D00EFC002C0031214CAAC82AD83AEF069
:0E0C2B00FFD003D0027407C39CFCE49DFDECD7
:0C0C39002AFAED3BFBE50870058A828B6F
:020C4500832208
:0A0C4700C3E49AF582E49BF58322D2
:0E1539000000000000010307070F1F1F1F1F07
:0E1547003F3F3F3F1F1F1F1F0F0707030100FD
:0E155500000000000000033F7FFFFFFFFFFFCC
:0E156300FFFFFFFFFFFFFFFFFFFFFFFFFFFF88
:0E157100FFFFFF7F3F0300000000C0FCFEFFF5
:0E157F00FFFFFFFFFFFFFFFFFFFFFFFFFFFF6C
:0E158D00FFFFFFFFFFFFFFFEFCC0000000009D
:0E159B0000000080C0E0E0F0F8F8F8F8FCFC7A
:0E15A900FCFCF8F8F8F8F0E0E0C0800000006C
:0215B700000032
:0E15B900810203040000008506070800000000
:0E15C700890A0B0C0000008D0E0F10000000B2
:0E15D500911213140000009516171800000064
:0E15E300999A9B9C9D9E9F20212223242526C1
:0E15F1002728292A2B2C2D00000000000000C6
:0E15FF000000000000000000000000000000DE
:0E160D00AEAFB0B1808080B233343500000043
:0E161B00B637383900000080000000000000E3
:0E1629008000000000000080000000000000B3
:0E163700808080BABBBCBD0000003E3F40C1B9
:0E164500000000424344C50000000000008089
:0E165300000000000000800000000000008089
:04166100010708066F
:0E16650020342D494E2D412D4C494E45206F0D
:0E1673006E20456C656B746F722046504741C7
:02168100200047
:0E168300202A2A2A2A2A2A2A2A2A2A2A2A2A17
:0E1691002A2A2A2A2A2A2A2A2A2A2A2A2A2AFF
:02169F00200029
:0E16A10028632920627920412E566F67676505
:0616AF006E656465720027
:0E16B5004631203D204E65772047616D65006F
:0A16C3004632203D20556E646F0092
:0E16CD004633203D2054776F20506C617965C4
:0216DB0072009B
:0E16DD004634203D204F6E6520506C617965CB
:0E16EB0072202F204175746F206D6F766500A0
:0E16F90053656C65637420636F6C756D6E20B5
:0E17070077697468206B657973203120746FE8
:031715002037007A
:0E1718004F6E6520506C61796572206D6F64B4
:0217260065005C
:0E17280054776F20506C61796572206D6F648C
:0217360065004C
:0E173800203120202032202020332020203499
:0E174600202020352020203620202037202093
:02175400200073
:0D1756005468696E6B696E67202E2E2E00A0
:0D17630020202020202020202020202000F9
:07006900752100752280756E
:02007000230764
:0E0C51007A007BAA90AA00E0FC53040F8A826E
:050C5F008B83ECF02284
:0E0C64007A007BAA90AA00E0FC740F5C44109A
:070C7200FC8A828B83F02253
:0E0C79007A007BAA90AA00E0FC740F5C442075
:070C8700FC8A828B83F0223E
:0C0C8E00120C517A007B807C0075302035
:0A0C9A007531607532098A828B8380
:0E0CA4008CF0121392120C647A007B807C009C
:070CB2007530077531607514
:0C0CB90032098A828B838CF01213921295
:060CC5000C5175210075C1
:0A0CCB00228075230790AA02E4F0CE
:050CD50090AA01F022CD
:0D0CDA0090AA037402F090AA047412F09026
:0E0CE700AA05741EF090AA067450F090AA00A0
:060CF5007402F0020C8EF7
:0E0CFB0090AA07E0FA30E1F890AA06E0FA7B32
:0C0D09000090AA05E0FC7D0024FFF530FE
:0C0D1500ED34FFF5318A828B8312143F0D
:0A0D2100AA82AB838A2174802BF5AF
:0B0D2B0022120C517A007B807C0090AB
:0E0D3600AA06E0FD74802400FE7F0090AA064D
:0A0D4400E0F8882475250090AA0548
:0C0D4E00E0F8790024FFF530E934FFF5EF
:050D5A003185248285B3
:0C0D5F002583C002C003C004C005C0060C
:0A0D6B00C00712143F858233858310
:0C0D750034D007D006D005D004D003D045
:060D8100028D308E318F5F
:0B0D8700328A828B838CF01213CEAAFC
:0A0D920021AB227C0090AA06E0FDD0
:060D9C008D317532007577
:0C0DA20030208A828B838CF01213921296
:0E0DAE000C647A007B807C0090AA06E0FD7445
:0C0DBC00802400FE7F0090AA06E0F8886A
:0A0DC8002475250090AA05E0F879D3
:0A0DD2000024FFF530E934FFF5318D
:0A0DDC00852482852583C002C00330
:0D0DE600C004C005C006C00712143F85827E
:0A0DF30033858334D007D006D00505
:0A0DFD00D004D003D0028D308E31F7
:0C0E07008F328A828B838CF01213CEAAEB
:0A0E130021AB227C0090AA06E0FD4E
:060E1D008D3175320075F5
:0C0E230030078A828B838CF0121392023D
:020E2F000C5164
:0D0E3100AA8290AA06E0FBC3EA9B50449001
:0B0E3E00AA05E0FBC3E5269B5039AB82
:0A0E4900267C0090AA06E0FD8D3023
:0C0E53007531008B828C83C00212143FAA
:0E0E5F00AB82AC83D0028A057E00ED2BFBEE49
:0C0E6D003CFC90AA02EAF090AA01E526E5
:080E7900F08B2174802CF5229E
:010E8100224E
:0C0E8200AA82C002120C51D0028521820D
:090E8E00852283EAF0120C648550
:060E97002182852283E5A3
:070E9D0023FAF00521E4B582
:040EA4002102052200
:0E0EA800120C517A027BAA8A828B83E004FC32
:0E0EB6008A828B83ECF090AA06E0FAECB5027B
:0E0EC4003390AA02E4F07A017BAA8A828B8323
:0E0ED200E004FC8A828B83ECF090AA05E0FA23
:0E0EE000ECB50214120CFB7A017BAA8A828BFD
:0A0EEE0083E0FC1C8A828B83ECF089
:010EF80022D7
:0D0EF900AA82C3EA648094A05003020F8116
:0B0F0600C002120C51D0028521828530
:080F11002283EAF0120C648552
:060F19002182852283E520
:070F1F0023FBF00521E4B5FE
:040F2600210205227D
:0E0F2A00120C517B027CAA8B828C83E004FDAA
:0E0F38008B828C83EDF090AA06E0FBEDB503F2
:030F460002800125
:010F49002285
:0E0F4A0090AA02E4F07B017CAA8B828C83E0EB
:0E0F580004FD8B828C83EDF090AA05E0FBED8A
:050F6600B5030280014B
:010F6B002263
:0E0F6C00120CFB7B017CAA8B828C83E0FD1DA6
:070F7A008B828C83EDF02255
:050F8100BA08028043E4
:050F8600BA0A0280051B
:050F8B00BA0D58804A78
:0E0F900090AA01E0FA90AA05E0FB7C001BBBD2
:030F9E00FF011C34
:0E0FA1007D00C3EA9BED64808CF063F08095C8
:0E0FAF00F0501490AA02E0FA90AA01E0FB7440
:090FBD00012BF5268A82020E3197
:030FC600020CFB1F
:0C0FC90090AA02E0FA1A90AA01E0F526B6
:050FD5008A82020E31CA
:0C0FDA0090AA01E0F526758200020E319D
:010FE60022E8
:0D0FE700AA8290AA06E0FBC3EA9B50469048
:0B0FF400AA05E0FBC3E5279B503BABC8
:0A0FFF00277C0090AA06E0FD8D306B
:0C1009007531008B828C83C00212143FF2
:0E101500AB82AC83D00274802CFCEA2BFAE490
:081023003CFD7B0085283085AF
:03102B00293175F3
:0B102E0032808A828D838BF002135207
:011039002294
:06103A00AA82AB83ACF0BA
:0E1040008A828B838CF0121519FD60188D8248
:05104E000ABA00010BCD
:0E105300C002C003C004120EF9D004D003D0B6
:031061000280DC2E
:011064002269
:0C106500AA8274F05523FB740F5A4BF55F
:02107100232238
:0C107300AA82740F5523FBEAC454F0FA63
:04107F004BF52322E8
:0C108300AA82AB2A7C0090AA06E0FD8D3A
:0A108F00307531008B828C83C002A3
:0E10990012143FAB82AC83D0027D00EA2BFB29
:0E10A700ED3CFC74802CFCC003C004120C64F1
:0C10B500D004D003E52CC454F0FA740FF2
:0B10C100552B42028B828C83EAF00268
:0210CC000C51C5
:0210CE007A00A6
:0310D000BA030060
:0510D300400302116D55
:0E10D800D2DF7582FFC00212117AD0027B6453
:0E10E6001BEB601330DB10900001C002C00352
:0910F40012017BD003D00280E957
:0610FD00EB700302116913
:021103007B006F
:03110500BB6400C8
:0D110800501420D811900001C002C0031245
:09111500017BD003D0020B80E73E
:05111E00BB64028046E5
:0E112300C002121171AB82D002BBFA3A7B00FF
:03113100BB64009C
:0D113400501420D81190000AC002C0031210
:09114100017BD003D0020B80E712
:05114A00BB6402801AE5
:0E114F00C002121171AB82D002BBAA047582DD
:02115D0001226D
:0A115F00900064C00212017BD00270
:041169000A0210D096
:04116D007582002265
:0511710010D80280FB14
:0411760085D9822273
:02117A00AA8247
:06117C0020DBFD8AD922F0
:05007200C200C201C242
:010077000286
:04118200752D427510
:031186002E427581
:0C1189002F00C288C28975A801C2D8C21C
:0E119500DC1210CEE582700990189075F08083
:0311A30002103AFD
:0111A6002226
:0E11A700C0E0C0F0C082C083C0D075D0181068
:0411B500D8028009D3
:0911B90020D90685D9821211CF5C
:0D11C200C2DCD0D0D083D082D0F0D0E0329B
:0811CF00AA8230000302126D38
:0511D700BA1202800BBA
:0511DC00BA5902800970
:0611E100BAF009D2002261
:0311E700D2012210
:0311EA00D201220D
:0611ED0030020302126152
:0511F3002001377B0024
:0C11F800EB2B90177093FCB51A028006D8
:06120400EC60030B80EE1C
:0D120A00EB2BFB90177093FCB51A028001CE
:0112170022B4
:0A121800EB2470FBE43417FC8B821A
:0B1222008C83A3E493FBF58202127F93
:02122D007B0044
:0C122F00EB2B90180093FCB51A0280060F
:06123B00EC60030B80EEE5
:0D124100EB2BFB90180093FCB51A32EB2448
:0A124E0000FBE43418FC8B828C8353
:09125800A3E493FBF58202127F6E
:0C12610075822012127F75822002127F1D
:07126D00C200BA1202800565
:05127400BA59078003D8
:03127900C201228D
:02127C00C201AD
:01127E00224D
:0A127F00AA8274F0252F4012A82D5A
:08128900A61A052D052FC3E58F
:061291002D94524003758C
:021297002D42E6
:011299002232
:09129A00E52F60FCA82E86020578
:0512A3002EC3E52E94AE
:0512A800524003752E09
:0112AD0042FE
:0512AE00152F8A8222C9
:0812B300E52F700474018001B5
:0112BB00E44E
:0412BC00FAB401007F
:0912C000E433FA60047A018002B3
:0212C9007A00A9
:0412CB00EA24FF22F0
:0E1770000D090E7C157116311A7A1B731C615F
:0E177E001D771E3221632278236424652534F2
:0E178C00263329202A762B662C742D722E35DA
:0E179A00316E32623368346735793636392C59
:0E17A8003A6D3B6A3C753D373E38412C426B32
:0E17B6004369446F45304639492E4A2D4B6C2D
:0E17C4004CF84D704E2B52E654E5555C5A0D14
:0E17D2005BA85D27613C660869316B346C379B
:0E17E0007030712C7232733574367538792B77
:0E17EE007A337B2D7C2A7D39058106820483A7
:0417FC000C84000059
:0E1800000D090EA7155116211A5A1B531C4133
:0E180E001D571E22214322582344244525A4A1
:0E181C00262329202A562B462C542D522E25E9
:0E182A00314E32423348344735593626394C58
:0E1838003A4D3B4A3C553D2F3E28413B424B2A
:0E1846004349444F453D4629493A4A5F4B4CC1
:0E1854004CD84D504E3F52C654C555605A0DEB
:0E1862005B5E5D2A613E660869316B346C374F
:0E1870007030712C7232733574367538792BE6
:0E187E007A337B2D7C2A7D3905810682048316
:04188C000C840000C8
:0E189000505332204B6579626F617264206E96
:09189E006F7420666F756E640022
:0612CF00F9E53045314550
:0812D50032453360777800C355
:0A12DD0008E53320E73BE53025E08B
:0612E700F530E53133F59E
:0512ED0031E53233F58C
:0512F20032E53333F585
:0812F70033E5829530E5839593
:0712FF0031E5F09532E9959D
:081306003350D4C3E53313F5A5
:05130E0033E53213F588
:0513130032E53113F585
:0513180031E53013F582
:01131D00309F
:0A131E00E5829530FCE5839531FD72
:0A132800E5F09532FEE99533400729
:07133200F98EF08D838C821F
:07133900C3E53313F533E5B2
:051340003213F532E557
:051345003113F531E554
:07134A003013F530D8CEE9A5
:011351002279
:0813520085823385833485F0A8
:04135A0035AD30AECF
:04135E0031AF32A8D1
:0413620033A934AACD
:011366003551
:0E1367008D828E838FF0121519FBA3AD82AE1E
:0E13750083888289838AF0EB121426A3A88253
:0A138300A983EB70DF853382853407
:05138D00838535F0220C
:06003500E478FFF6D8FD9F
:0813920085823385833485F068
:04139A0035AD33AE8C
:04139E0034AF35A88B
:0313A20031A9323C
:0913A5008802890318B8FF011940
:0C13AE00EA4B60128D828E838FF0E530D8
:0A13BA00121426A3AD82AE8380E179
:0713C4008533828534838527
:0313CB0035F022D8
:0A13CE00AA82AB83ACF08A358B369F
:0513D8008C37A830A9CC
:0413DD0031AD328874
:0413E1003889398D81
:0413E5003AA833A946
:0113E90034CF
:0913EA008805890618B8FF0119F5
:0A13F300ED4E6025853882853983B0
:0A13FD00853AF0121519FDA3858250
:0A140700388583398A828B838CF0CC
:0B141100ED121426A3AA82AB8380CE4C
:07141C0085358285368385CA
:0314230037F0227D
:080013007900E94400601B7A4A
:05001B00009018A77819
:03002000C675A002
:0A00230000E493F2A308B800020500
:08002D00A0D9F4DAF275A0FF7E
:0E14260020F71030F6118883A88220F507F613
:05143400A88375830090
:011439002290
:03143A00F280F746
:02143D00F0229B
:0B143F00E5828530F0A4C582C0F08576
:0A144A0031F0A4D0F025F0C5838531
:0814540030F0A42583F583228A
:0C145C00AAF0FBE5828530F0A4FCADF0A6
:0C146800E5838530F0A42DFDE435F0FE96
:0C147400E5828531F0A42DFDE5F03EFE80
:0C148000E433FFEA8530F0A42EFEE5F016
:0C148C003FFFE5838531F0A42EFEE5F063
:0C1498003FFFE5828532F0A42EFEE5F057
:0B14A4003FFFEB8530F0A42FFFEA852E
:0A14AF0031F0A42FFFE5838532F031
:0C14B900A42FFFE5828533F0A42F8EF0F5
:0514C5008D838C8222E2
:08003B007800E84400600A7936
:030043000075A0A5
:0600460000E4F309D8FC00
:08004C0078C6E84400600C795D
:0B00540001900000E4F0A3D8FCD9FAF2
:0E14CA00F9C2D530E715D2D5E4C39582F5827C
:0D14D800E49583F583E495F0F5F0E499F9CF
:0A14E500E53330E715E4C39530F558
:0514EF0030E49531F529
:0514F40031E49532F522
:0514F90032E49533F51B
:0114FE0033BA
:0E14FF00E91212CF30D512E4C39582F582E4D3
:0B150D009583F583E495F0F5F0E49978
:0115180022B0
:03000600758151B0
:0A000900121535E582600302007B4A
:0E15190020F71430F6148883A88220F507E628
:06152700A8837583002279
:03152D00E280F762
:03153000E493221F
:02153300E022B4
:041535007582002299
:00000001FF
