:030000000218AA39
:03190300020003DC
:0500030012032580FE40
:0E000800AA83E582900020F0A3EAF090002287
:0E00160074A8F0A37461F090002474D4F0A3D9
:0E0024007430F0900026746AF0A37418F09007
:0E00320000287435F0A3740CF090002A741BA3
:0E004000F0A37406F090002C740DF0A374036E
:0E004E00F090002E7486F0A37401F090003044
:0D005C0074C3F0A3E4F0900032F0A3F09024
:0B0069000020E0FAA3E0FBEA30E71003
:0E007400900022E0FAA3E0FB900032EAF0A335
:02008200EBF0A1
:0C008400900020E0FAA3E0FBEA30E61A4E
:0E009000900024E0FAA3E0FB900032E0FCA315
:0C009E00E0FD900032EA2CF0EB3DA3F0F6
:0C00AA00900020E0FAA3E0FBEA30E51A29
:0E00B600900026E0FAA3E0FB900032E0FCA3ED
:0C00C400E0FD900032EA2CF0EB3DA3F0D0
:0C00D000900020E0FAA3E0FBEA30E41A04
:0E00DC00900028E0FAA3E0FB900032E0FCA3C5
:0C00EA00E0FD900032EA2CF0EB3DA3F0AA
:0C00F600900020E0FAA3E0FBEA30E31ADF
:0E01020090002AE0FAA3E0FB900032E0FCA39C
:0C011000E0FD900032EA2CF0EB3DA3F083
:0C011C00900020E0FAA3E0FBEA30E21AB9
:0E01280090002CE0FAA3E0FB900032E0FCA374
:0C013600E0FD900032EA2CF0EB3DA3F05D
:0C014200900020E0FAA3E0FBEA30E11A94
:0E014E0090002EE0FAA3E0FB900032E0FCA34C
:0C015C00E0FD900032EA2CF0EB3DA3F037
:0C016800900020E0FAA3E0FBEA30E01A6F
:0E017400900030E0FAA3E0FB900032E0FCA324
:0C018200E0FD900032EA2CF0EB3DA3F011
:0B018E00900032E0FAA3E08A82F583C3
:010199002243
:0E019A00AAF0AB83E582900037F0A3EBF0A350
:0E01A800EAF090003A7430F090003B7431F0B1
:0D01B60090003C7432F090003D7433F090E6
:0C01C300003E7434F090003F7435F09062
:0C01CF0000407436F09000417437F0904E
:0C01DB0000427438F09000437439F0903A
:0C01E70000447461F09000457462F090D8
:0C01F30000467463F09000477464F090C4
:0E01FF0000487465F09000497466F07A007B49
:09020D0000900034E0FCA3E0FDC8
:09021600C3EC9410ED9427400F95
:05021F000ABA00010B0A
:0A022400EC24F0FCED34D8FD80E876
:0E022E00C004C005900037E0FEA3E0FFA3E08F
:08023C00F8900036E0F50EE534
:0C0244000E2EFCE43FFD8801EA243AF590
:0D02500082EB3400F583E0FA8C828D838907
:06025D00F0120ABB850E41
:070263000F75100074012566
:0C026A000FFAE43510FBEA2EFEEB3FFF1C
:0E0276008E828F8388F0742E120ABBD005D0C2
:05028400047A007B007C
:09028900C3EC94E8ED9403400F6E
:050292000ABA00010B97
:0A029700EC2418FCED34FCFD80E8B7
:0C02A100C004C0057402250FFEE43510F7
:0E02AD00FF900037E0F8A3E0F9A3E0FCEE2894
:0D02BB00FEEF39FF8C05EA243AF582EB34A2
:0C02C80000F583E0FA8E828F838DF01227
:0A02D4000ABBD005D0047A007B00BD
:0902DE00C3EC9464ED9400400FA0
:0502E7000ABA00010B42
:0A02EC00EC249CFCED34FFFD80E8DB
:0A02F6007403250FFCE43510FD90A1
:0E0300000037E0FEA3E0FFA3E0F8EC2EFEEDD8
:0C030E003FFFEA243AF582EB3400F5834F
:0B031A00E0FA8E828F8388F0020ABB9D
:0A0325007590001205BC7A007B0001
:09032F00C3EA9414EB940050148D
:040338007CFE7D0FBB
:05033C001CBCFF011DC7
:04034100EC4D70F718
:070345000ABA00E60B80E399
:07034C001205BC1209D59057
:0B0353000053E4F090057A75F00212F0
:09035E000A2C9000537401F09088
:0C036700058A75F002120A2C7A007B0057
:09037300C3EA94D0EB9407501486
:04037C007CFE7D0F77
:050380001CBCFF011D83
:04038500EC4D70F7D4
:070389000ABA00E60B80E355
:0D0390001205D975829E12066F7582441207
:09039D00066F75828012066F12D2
:0903A60006241205D975829F128C
:0C03AF00066F758201120757758201125B
:0E03BB000757AA82758201C002120757AB8253
:0E03C900D002758201C002C003120757AC8239
:0E03D700D003D002758200C002C003C0041221
:0E03E5000757AD82D004D003D002C002C0037F
:0E03F300C004C005120624D005D004D003D0EB
:0D04010002C002C003C004C005749AC0E030
:0C040E007405C0E07402C0E07400C0E09F
:0D041A007400C0E07401C0E0120BA4E58185
:0E04270024FAF581D005D004D003D0027E0067
:0E0435008C828E83C002C003C005120008AC8A
:0E04430082AE83D005D003D0027E008D828E63
:0E04510083C002C003C004120008AD82AE8357
:0E045F00D004D003D0027E008A828E83C003B8
:0E046D00C004C005120008AA82AE83D005D0DC
:0E047B0004D003900034EAF0A3EEF0900036B7
:0E0489007402F090000075F001C003C004C0C2
:0E0497000512019AD005D004D0037A008B82A2
:0E04A5008A83C004C005120008AA82AB83D06F
:0E04B30005D004900034EAF0A3EBF090003680
:0E04C100740AF090000075F001C004C005122E
:0C04CF00019AD005D004900053E4F09096
:0E04DB00000075F001C004C005120A2CD00507
:0C04E900D004C004C00574ABC0E0740572
:0C04F500C0E07402C0E07400C0E07400BD
:0E050100C0E07401C0E0120BA4E58124FAF5FD
:0E050F0081D005D004900034ECF0A3E4F0900D
:0E051D0000367402F090000075F001C0051267
:0D052B00019AD005900034EDF0A3E4F090AB
:0C0538000036740AF090000075F001120B
:09054400019A9000537401F0903B
:0C054D00000075F001120A2C7A007B00FF
:0C055900C3EA940AEB94004003020390F4
:040565007CFE7D0F8C
:050569001CBCFF011D98
:04056E00EC4D70F7E9
:070572000ABA00E30B80E070
:01057900225F
:0E057A00206578393A20342D6368616E6E6515
:020588006C0005
:0E058A0020412F442D636F6E76657273696F8A
:020598006E00F3
:0E059A00313A202E20205620323A202E2020EA
:0305A800562000DA
:0E05AB00333A202E20205620343A202E2020D5
:0305B900562000C9
:0D05BC0090004A74FFF07580FF1205D9020F
:0205C900062406
:0405CB007A327B0005
:0505CF001ABAFF011B38
:0405D400EA4B70F787
:0105D8002200
:0E05D90090004AE0FA4401F090004AE0F580FC
:0C05E7001205CB90004AE0FA4402F090AC
:0505F300004AE0F58064
:0705F80074805580FA60F9E0
:0C05FF001205CB90004AE0FA54FEF09088
:09060B00004AE0F5801205CB90D5
:0E061400004AE0FA54FDF090004AE0F5800242
:0206220005CB06
:0E06240090004AE0FA54FDF090004AE0F580A4
:0C0632001205CB90004AE0FA54FEF09054
:09063E00004AE0F5801205CB90A2
:0D064700004AE0FA4402F090004AE0F5801D
:0706540074805580FA60F983
:0C065B001205CB90004AE0FA4401F09038
:08066700004AE0F5800205CB1A
:08066F00E58290004BF07A00D7
:03067700BA0800BE
:05067A0040030206F33D
:08067F0090004BE0FB30E7178F
:0E06870090004AE0FB4401F090004AE0F5804C
:09069500C0021205CBD002801551
:0E069E0090004AE0FB54FEF090004AE0F58028
:0706AC00C0021205CBD002D1
:0E06B30090004AE0FB4402F090004AE0F5801F
:0706C10074805580FB60F915
:0E06C800C0021205CBD00290004AE0FB54FDA8
:0E06D600F090004AE0F580C0021205CBD00281
:0D06E40090004BE025E0FB90004BF00A0277
:0206F10006778A
:0E06F30090004AE0FA4401F090004AE0F580E1
:0C0701001205CB90004AE0FA4402F09090
:05070D00004AE0F58048
:0707120074805580FA60F9C4
:0A0719001205CB90004CE580F09033
:0E072300004AE0FA54FDF090004AE0F5801222
:0B07310005CB90004AE0FA54FEF09067
:09073C00004AE0F5801205CB90A3
:0A074500004CE0FA530240BA000431
:04074F00758201228C
:03075300758200AC
:010756002280
:0E075700E58290004DF090004AE0FA4401F077
:0B07650090004AE0F5801205CB7A00FE
:03077000BA0800C4
:020773005057DD
:0E07750090004AE0FB4402F090004AE0F5805C
:0707830074805580FB60F952
:0E078A00C0021205CBD00274405580FBBB406C
:010798001050
:0E07990090004EE025E0FB90004E74012BF026
:0207A700800BC5
:0B07A90090004EE025E0FB90004EF0B9
:0E07B40090004AE0FB54FDF090004AE0F58012
:0A07C200C0021205CBD0020A80A489
:0707CC0090004DE0FA6013FC
:0E07D30090004AE0FA54FEF090004AE0F580F3
:0507E1001205CB8011A0
:0E07E60090004AE0FA4401F090004AE0F580ED
:0307F4001205CB20
:0E07F70090004AE0FA4402F090004AE0F580DB
:0708050074805580FA60F9D0
:0C080C001205CB90004AE0FA54FDF09079
:09081800004AE0F5801205CB90C6
:0E082100004AE0FA54FEF090004AE0F5801222
:08082F0005CB90004EE0F582BC
:01083700229E
:040838007AFE7BFFCA
:04083C00EA4B60071C
:070840001ABAFFF81B80F556
:01084700228E
:0D084800E582900050F01205D97582421231
:0A085500066F900050E0FAF58212E1
:06085F00066F12062412D0
:0908650005D975824012066F905E
:0E086E00004FE0FA4420F090004FE0FAF582CF
:0C087C0012066F90004FE0FA54BFF0909D
:0A088800004FE0FAF58212066F90AF
:0E089200004FE0FA4480F090004FE0FAF5824B
:0C08A00012066F90004FE0FA547FF090B9
:0A08AC00004FE0FAF58212066F0219
:0208B600062416
:0608B8009000517480F075
:0C08BE00900051E0FA530280BA000122C1
:0D08CA001205D975824212066F7582FF1269
:0608D700066F1206241258
:0908DD0005D975824012066F90E6
:0E08E600004FE0FA54DFF090004FE0FAF58288
:0C08F40012066F90004FE0FA4440F090B4
:0A090000004FE0FAF58212066F9036
:0E090A00004FE0FA4480F090004FE0FAF582D2
:0709180012066F1206241203
:0C091F0005D975824312066F7582011223
:09092B000757E582900051F0121B
:0909340006241205D97582401257
:0B093D00066F90004FE0FA547FF0902E
:0A094800004FE0FAF58212066F126C
:0509520006240208BEAE
:01095700227D
:0D095800E582900052F01205D9758242121E
:0A096500066F900052E0FAF58212CE
:06096F00066F12062412BF
:0909750005D975824012066F904D
:0E097E00004FE0FA54DFF090004FE0FAF582EF
:0C098C0012066F90004FE0FA54BFF0908C
:0A099800004FE0FAF58212066F909E
:0A09A200004FE0FAF58212066F9094
:0E09AC00004FE0FA4480F090004FE0FAF58230
:0C09BA0012066F90004FE0FA547FF0909E
:0A09C600004FE0FAF58212066F12EE
:0509D0000624020838B6
:0D09D5007582381209581208B87582381260
:0909E20009581208B875820C12C4
:0909EB0009581208B875820212C5
:0909F40009581208B875820612B8
:0909FD0009581208B875820C12A9
:090A060009581208B8758240126B
:090A0F0009581208B87582801222
:090A180009581208B87582011298
:060A210009581208B8900C
:040A2700004FE4F0A8
:010A2B0022A8
:0E0A2C00AAF0AB83E582900054F0A3EBF0A398
:090A3A00EAF0900053E0FA6002BA
:020A4300800829
:080A4500758280120958800639
:060A4D007582C012095879
:0D0A5300900054E0FAA3E0FBA3E0FC7D005E
:0C0A60008A828B838CF0121844FE602DFB
:030A6C00BD1000BA
:020A6F0050280D
:050A71000ABA00010BB0
:0E0A7600900054EAF0A3EBF0A3ECF08E82C0E7
:0E0A840002C003C004C005120848D005D0040B
:070A9200D003D0020D80C764
:0D0A9900900054EAF0A3EBF0A3ECF08D0206
:060AA6008A030ABB1000E8
:020AAC00500CEC
:0C0AAE00758220C002120848D00280ECC3
:010ABA002219
:0618D900E478FFF6D8FDE3
:0818B7007900E94400601B7A8E
:0518BF000090190678FD
:0318C4008875A084
:0C18C70000E493F2A308B8000205A0D9C9
:0618D300F4DAF275A0FF3B
:0E0ABB00C0E0E5F060101460171460071460CE
:050AC900151414600388
:030ACE00D0E02253
:0A0AD100D0E0C000A882F6D0002299
:040ADB00D0E0F02255
:0A0ADF00D0E0C000A882F2D000228F
:0818DF007800E84400600A797A
:0318E7000075A0E9
:0618EA0000E4F309D8FC44
:0818F0007888E84400600C79DF
:0B18F80001900000E4F0A3D8FCD9FA36
:080AE900C008858108C082E508
:0D0AF1000824FBF886820886830886F01230
:0A0AFE001844FEA3121844FFA312CF
:0D0B08001844FA74012EFBE43FFC8A05E559
:0D0B15000824FBF886820886830886F0EB32
:0B0B2200120ABBA3EC120ABBA3ED12E9
:0D0B2D000ABB8E828F838AF0A80808E612AA
:020B3A000ABBF4
:060B3C00850881D00822AB
:0E0B4200AAF0AB83E58290005CF0A3EBF0A379
:0E0B5000EAF0900058E0FAA3E0FBA3E0FC906E
:080B5E00005BE0FD90006C74E7
:0B0B66005CF0A37400F0A37401F09099
:0E0B7100006FEAF0A3EBF0A3ECF0900072ED41
:0C0B7F00F0900AE9120CFBAA82AB8390F4
:0E0B8B00005CE0FCA3E0FDA3E0FE8C828D8305
:0A0B99008EF0E4120ABB8A828B83FF
:010BA300222F
:060BA400C008858108E590
:0C0BAA000824F8FAE50824FBFB7C007D21
:0D0BB6000090006CEBF0A3ECF0A3EDF0E577
:0D0BC3000824F8F890006FE6F008A3E6F0B3
:0D0BD00008A3E6F0900072EAF0900AE91226
:0D0BDD000CFBAA82AB83E50824FBF886041C
:0E0BEA000886050886068C828D838EF0E41244
:060BF8000ABB8A828B8318
:060BFE00850881D00822E9
:0E0C0400E582900069F0900069E0FAC374097F
:070C12009AB3E433FB600616
:060C190074302AFB800F7D
:030C1F003000069C
:060C220074572AFC800457
:040C280074372AFCF7
:020C2C008C0337
:0E0C2E00900061E0C0E0A3E0C0E0A3E0C0E001
:090C3C007451C0E0740CC0E0909A
:0C0C4500005FE0C0E0A3E0C0E08B822272
:060C5100158115811581DB
:010C5700227A
:0E0C5800E58290006AF090006AE0FAC4540F42
:0E0C6600FBF582C002120C04D00253020F8A6A
:040C740082020C04E8
:0D0C7800E58290006BF090006BE0FA7B20AD
:040C8500BB0001228D
:0E0C8900900068E025E0FC900064E0FDA3E030
:0E0C9700FEA3E0FFA3E0F8235401F94204900D
:0E0CA5000068ECF0ED2DFDEE33FEEF33FFE8BE
:0E0CB30033F8900064EDF0A3EEF0A3EFF0A391
:0B0CC100E8F0900068E0FCC39A402BB4
:0D0CCC00900068E0FCC39AFC900068F09076
:0E0CD9000064E0FCA3E0FDA3E0FEA3E0FF4307
:0E0CE7000401900064ECF0A3EDF0A3EEF0A386
:020CF500EFF01E
:030CF7001B808BD4
:010CFA0022D7
:0E0CFB00AA83E582900073F0A3EAF0900073E4
:0E0D0900E0FAA3E0FB90005FEAF0A3EBF090AD
:0E0D1700006CE0FAA3E0FBA3E0FC900061EAB0
:0E0D2500F0A3EBF0A3ECF0900076E4F0A3F066
:0E0D330090006FE0FAA3E0FBA3E0FC8A828B45
:0E0D4100838CF0121844FD90006F74012AF0AC
:0D0D4F00E43BA3F0A3ECF0ED70030217DF0E
:050D5C00BD250280032B
:030D61000217A0D6
:050D6400C201C202C241
:040D690003C204C2FB
:070D6D0005900075E4F0C2DF
:040D740006C207C2EA
:070D780008900078E4F09000
:0E0D7F00007974FFF090006FE0FAA3E0FBA390
:020D8D00E0FC88
:0E0D8F008A828B838CF0121844FEA3AA82ABDA
:0D0D9D008390006FEAF0A3EBF0A3ECF09060
:070DAA00007AEEF0BE253FC8
:0E0DB100900061E0C0E0A3E0C0E0A3E0C0E07D
:090DBF0074D4C0E0740DC0E09092
:0C0DC800005FE0C0E0A3E0C0E08E8222EB
:0E0DD400158115811581900076E0FAA3E0FBF1
:0E0DE20090007674012AF0E43BA3F0020D337A
:0E0DF0008E82C002C003C004C00612186CE55B
:0B0DFE0082D006D004D003D002604B6E
:080E0900900079E0FFBFFF3209
:0E0E1100C002C003C004900078E0FA75F00A39
:0E0E1F00A4FAEE24D09000782AF0900078E03B
:060E2D00FAE4BA00010422
:0B0E3300D004D003D0027003020D8F2A
:050E3E00D202020D8F3D
:0E0E4300EF75F00AA4FFEE24D09000792FF096
:030E5100020D8F00
:030E5400BE2E08A7
:080E5700900079E4F0020D8F18
:0E0E5F008E82C002C003C004C00612188DE5CA
:0D0E6D008224FF9200D006D004D003D002F2
:030E7A003000073E
:070E7D0090007A74DF5EF0C3
:0A0E840090007AE0FEBE20028055C7
:050E8E00BE2B02804BA9
:050E9300BE2D028041AC
:050E9800BE4202804B88
:050E9D00BE430280507D
:060EA200BE440302123100
:060EA800BE4603021253D6
:060EAE00BE4903021231EF
:050EB400BE4C02803479
:060EB900BE4F0302123BD4
:060EBF00BE500302110405
:050EC500BE530280791C
:060ECA00BE5503021243B5
:060ED000BE580302124BA4
:030ED600021257AE
:050ED900D201020D8FA3
:050EDE00D203020D8F9C
:050EE300D204020D8F96
:050EE800D206020D8F8F
:050EED00D207020D8F89
:0E0EF200900072E0FA24FEF8900072F0860282
:0E0F000008860318900061E0C0E0A3E0C0E0A6
:0C0F0E00A3E0C0E07427C0E0740FC0E056
:0D0F1A0090005FE0C0E0A3E0C0E08A82220A
:0E0F2700158115811581900076E0FAA3E0FB9C
:0E0F350090007674012AF0E43BA3F0021293C0
:0E0F4300900072E0FA24FDF8900072F0860231
:0E0F51000886030886041818900064EAF0A3CE
:0E0F5F00EBF0A3ECF08A828B838CF01217FC6F
:0A0F6D00AA82AB83300103020FF3E8
:0A0F7700900078E0FBC3EA9B507283
:0E0F8100900078EBC39AF0900076E0FBA3E0BE
:060F8F00FC900078E0FF79
:0E0F9500C0028F021F900078EFF0E4BA000156
:010FA3000449
:0E0FA400FA900076EBF0A3ECF0EAD002704178
:0E0FB200C002C003C004C007900061E0C0E0B0
:0D0FC000A3E0C0E0A3E0C0E074DEC0E07478
:0D0FCD000FC0E090005FE0C0E0A3E0C0E0D6
:040FDA0075822022DA
:0E0FDE00158115811581D007D004D003D002F3
:050FEC000BBB00A50C89
:020FF10080A2DC
:090FF300900076E0F509A3E0F599
:010FFC000AEA
:0E0FFD00C002900064E0FFA3E0FAA3E0FB8FC7
:0D100B00828A838BF0121844FF900076E576
:0B10180009F0A3E50AF0D002EF6065CC
:0E102300C002900064E0FDA3E0FEA3E0FF74B5
:0E103100012DFAE43EFB8F04900064EAF0A368
:0E103F00EBF0A3ECF08D828E838FF01218443C
:0E104D00FAC002900061E0C0E0A3E0C0E0A3A2
:0C105B00E0C0E07473C0E07410C0E090CE
:0C106700005FE0C0E0A3E0C0E08A82224D
:0C107300158115811581D0020509E4B536
:04107F000902050A53
:05108300D002020FFD88
:0610880020010302129397
:0D108E00900078E0FBC3EA9B400302129340
:0A109B00900078EBC39AF0AA09ABAD
:0610A5000A900078E0FC57
:0D10AB008C071C900078ECF0E4BF000104FD
:0D10B800FF900076EAF0A3EBF0EF6003027A
:0210C500129384
:0E10C700C002C003C004900061E0C0E0A3E0DE
:0C10D500C0E0A3E0C0E074F1C0E07410C3
:0E10E100C0E090005FE0C0E0A3E0C0E07582D8
:0210EF002022BD
:0E10F100158115811581D004D003D0020ABAF2
:0310FF0000AA0B39
:0211020080A7C4
:0E110400900072E0FA24FDF8900072F086026E
:0E1112000886030886041818900064EAF0A30B
:0E112000EBF0A3ECF0900066E0FA24FC500423
:04112E007A048005BA
:05113200900066E0FAE8
:0E113700EA9017EB93FA900061E0C0E0A3E0AD
:0C114500C0E0A3E0C0E07460C0E07411E2
:0E115100C0E090005FE0C0E0A3E0C0E08A8252
:01115F00226D
:0E116000158115811581900061E0C0E0A3E0CB
:0C116E00C0E0A3E0C0E0748AC0E074118F
:0E117A00C0E090005FE0C0E0A3E0C0E075823E
:021188003A2209
:0E118A00158115811581900061E0C0E0A3E0A1
:0C119800C0E0A3E0C0E074B4C0E074113B
:0E11A400C0E090005FE0C0E0A3E0C0E0758214
:0211B2003022E9
:0E11B400158115811581900061E0C0E0A3E077
:0C11C200C0E0A3E0C0E074DEC0E07411E7
:0E11CE00C0E090005FE0C0E0A3E0C0E07582EA
:0211DC00782277
:0D11DE00158115811581900066E0FA6027EB
:0A11EB00900066E0FABA0302801DCE
:0B11F500900065E0FAF582120C5890A3
:0E1200000076E0FAA3E0FB90007674022AF07C
:04120E00E43BA3F02A
:0B121200900064E0FAF582120C589086
:0E121D000076E0FAA3E0FB90007674062AF05B
:06122B00E43BA3F0806229
:0A123100D205900075740AF0805891
:08123B009000757408F080506A
:08124300900075740AF0804868
:08124B009000757410F0804062
:04125300D208803C01
:0E125700900061E0C0E0A3E0C0E0A3E0C0E0D2
:09126500747AC0E07412C0E0903C
:0C126E00005FE0C0E0A3E0C0E08E822240
:0E127A00158115811581900076E0FAA3E0FB46
:0B12880090007674012AF0E43BA3F014
:06129300200803021345D0
:0E129900900072E0FA24FCF8900072F08602D9
:0D12A70008860308860408860618181890AB
:0E12B4000064EAF0A3EBF0A3ECF0A3EEF090E0
:0712C200006474F1F0A37455
:0B12C90017F0A37402F0900076E0F52F
:0512D4000BA3E0F50C86
:0E12D900900064E0FDA3E0FEA3E0FF74012D91
:0E12E700FAE43EFB8F04900064EAF0A3EBF003
:0E12F500A3ECF08D828E838FF0121844FA90D5
:071303000076E50BF0A3E505
:08130A000CF0EA7003020D3340
:0E131200900061E0C0E0A3E0C0E0A3E0C0E016
:091320007435C0E07413C0E090C4
:0C132900005FE0C0E0A3E0C0E08A822288
:0C133500158115811581050BE4B50B989E
:02134100050C99
:02134300809494
:0B134500900075E0FABA0003020D33BF
:081350009000817480F0A37489
:0513580000F030064C1E
:0E135D00900072E0FA14F8900072F08602EA36
:0E136B003395E0FBFCFE900064EAF0A3EBF08B
:0C137900A3ECF0A3EEF030050302141FFB
:0E138500900064E0FAA3E0FBA3E0FCA3E0FE0E
:0E1393007B007C007E00900064EAF0A3EBF08B
:0813A100A3ECF0A3EEF080764E
:0313A90030072AE0
:0E13AC00900072E0FA24FCF8900072F08602C5
:0D13BA000886030886040886061818189097
:0E13C7000064EAF0A3EBF0A3ECF0A3EEF080DC
:0113D50049CE
:0E13D600900072E0FA24FEF8900072F0860299
:0E13E40008860318EB3395E0FCFE900064EAE7
:0D13F200F0A3EBF0A3ECF0A3EEF02005203B
:0E13FF00900064E0FAA3E0FBA3E0FCA3E0FE94
:0E140D007C007E00900064EAF0A3EBF0A3ECFC
:04141B00F0A3EEF05C
:03141F0030053065
:0E142200900064E0FAA3E0FBA3E0FCA3E0FE70
:0314300030E71D85
:0E143300C3E49AFAE49BFBE49CFCE49EFE906A
:0E1441000064EAF0A3EBF0A3ECF0A3EEF08061
:01144F00029A
:02145000C205D3
:08145200D209900075E0FC7561
:03145A0009807591
:04145D000A007D0004
:0E146100900068E4F08C82C004C005120C7884
:07146F00D005D0042009287C
:0D147600C004900068E0FFC4FF8509828576
:0A1483000A83E0FA4207850982851A
:09148D000A83EFF0150974FFB5A4
:041496000902150A28
:04149A00D004800CEE
:09149E00900068E0FF85098285D9
:0314A7000A83F0C5
:0D14AA000DB209900064E0FFA3E0FAA3E09A
:0C14B700FEA3E0FB900081E509F0A3E536
:0814C3000AF0EF4A4E4B70964F
:0714CB00900078E0FA6002D6
:0214D200800692
:0614D4009000787401F0A5
:0314DA002002707D
:0314DD0020016D7E
:0D14E00074012DFA900076E0FBA3E0FC9073
:0414ED000078E0FEA5
:0E14F100C3EA9EE433FF900076EBF0A3ECF02C
:0814FF00900078EEF0EF60466A
:0E150700C002C003C004C005C006900061E031
:0D151500C0E0A3E0C0E0A3E0C0E07435C07A
:0D152200E07415C0E090005FE0C0E0A3E0C1
:06152F00C0E075822022DD
:0E153500158115811581D006D005D004D00394
:07154300D0020BBB00010CFC
:03154A001E80A45C
:03154D0030054E18
:0E155000C005900061E0C0E0A3E0C0E0A3E0B1
:0B155E00C0E07476C0E07415C0E0909F
:0D156900005FE0C0E0A3E0C0E075822D222D
:0E157600158115811581D005900076E0FAA34D
:0E158400E0FB90007674012AF0E43BA3F090A7
:0A1592000078E0FA14900078F002EF
:02159C001642F5
:06159E00BD00030216422D
:0315A40030034DC4
:0E15A700C005900061E0C0E0A3E0C0E0A3E05A
:0B15B500C0E074CDC0E07415C0E090F1
:0D15C000005FE0C0E0A3E0C0E075822B22D8
:0E15CD00158115811581D005900076E0FAA3F6
:0E15DB00E0FB90007674012AF0E43BA3F09050
:0B15E9000078E0FA14900078F0804ECB
:0315F40030044B75
:0E15F700C005900061E0C0E0A3E0C0E0A3E00A
:0B160500C0E0741DC0E07416C0E0904F
:0D161000005FE0C0E0A3E0C0E07582202292
:0E161D00158115811581D005900076E0FAA3A5
:0E162B00E0FB90007674012AF0E43BA3F090FF
:091639000078E0FA14900078F04A
:031642002001750F
:0E1645008D02900076E0FBA3E0FC900078E0C0
:01165300FE98
:0E1654008E071E900078EEF0C3EA9FE433FF8D
:0B166200900076EBF0A3ECF0EF606569
:03166D0030020444
:041670007F30800245
:021674007F20D5
:0E167600C002C003C004C005C006900061E0C1
:0D168400C0E0A3E0C0E0A3E0C0E074A3C09C
:0D169100E07416C0E090005FE0C0E0A3E050
:05169E00C0E08F822274
:0E16A300158115811581D006D005D004D00325
:0716B100D0020BBB009D0CF1
:0216B800809A16
:0A16BA00900078E0FAC3ED9A5009A1
:0916C400900078EAC39DF0800556
:0516CD00900078E4F03C
:0E16D200900081E0FAA3E0FB900076E0FCA31C
:0216E000E0FE2A
:0E16E2008D071D900076ECF0A3EEF0EF604D4A
:0516F000B209200915FC
:0516F5000ABA00010B20
:0E16FA008A828B83E0FFC4540FFF900068F0DB
:02170800800E51
:0E170A008A828B83E0FF53070F900068EFF098
:0E171800900068E0FFF582C002C003C004C06C
:0E17260005C006120C04D006D005D004D00376
:07173400D0020CBC00A80E5E
:02173B0080A587
:06173D00200103020D3340
:091743008C028E03900078E0FC9A
:0E174C008C061CC3E49EE433FE900076EAF0A7
:09175A00A3EBF0EE7003020D3365
:0E176300C002C003C004900061E0C0E0A3E03B
:0C177100C0E0A3E0C0E0748DC0E074177D
:0E177D00C0E090005FE0C0E0A3E0C0E0758235
:02178B0020221A
:0E178D00158115811581D004D003D0020ABA4F
:03179B0000AF0B91
:02179E0080AC1D
:0E17A000900061E0C0E0A3E0C0E0A3E0C0E084
:0917AE0074C3C0E07417C0E090A0
:0C17B700005FE0C0E0A3E0C0E08D8222F3
:0E17C300158115811581900076E0FAA3E0FBF8
:0E17D10090007674012AF0E43BA3F0020D3381
:0B17DF00900076E0FAA3E08A82F58318
:0117EA0022DC
:0617EB00495843502D0097
:0B17F1003C4E4F20464C4F41543E0040
:0E17FC00AAF0AB83E582900083F0A3EBF0A38C
:0E180A00EAF07A007B00900083E0FCA3E0FD92
:03181800A3E0FE4C
:0E181B008C828D838EF0121844FFA3AC82AD38
:0E18290083900083ECF0A3EDF0A3EEF0EF60EF
:0118370007A9
:071838000ABA00DF0B80DC9F
:04183F008A828B838B
:011843002282
:0318AA0075812124
:0A18AD00121889E5826003020003AF
:0E184400E5F0601014601514601414601314A5
:0618520014600374FF2284
:08185800C000A882E6D00022C6
:02186000E02284
:021862009322CF
:08186400C000A882E2D00022BE
:0E186C00E582900086F0900086E0FABA300027
:02187A00400923
:05187C00EA24C640044F
:041881007582012249
:0318850075820069
:01188800223D
:0318890075820065
:01188C002239
:0E188D00E582900087F0900087E0FABA6100D3
:02189B00400902
:05189D00EA248540046F
:0418A2007582012228
:0318A60075820048
:0118A900221C
:00000001FF
